{
  "contractName": "OwnedByGovernor",
  "abi": [
    {
      "inputs": [
        {
          "internalType": "address",
          "name": "addr",
          "type": "address"
        }
      ],
      "name": "updateGovernanceContract",
      "outputs": [],
      "stateMutability": "nonpayable",
      "type": "function"
    },
    {
      "inputs": [],
      "name": "governanceContract",
      "outputs": [
        {
          "internalType": "address",
          "name": "",
          "type": "address"
        }
      ],
      "stateMutability": "view",
      "type": "function"
    }
  ],
  "bytecode": "0x608060405234801561001057600080fd5b5061016b806100206000396000f3fe608060405234801561001057600080fd5b50600436106100365760003560e01c80636faf60a01461003b578063b172b2221461007f575b600080fd5b61007d6004803603602081101561005157600080fd5b81019080803573ffffffffffffffffffffffffffffffffffffffff1690602001909291905050506100c9565b005b61008761010c565b604051808273ffffffffffffffffffffffffffffffffffffffff1673ffffffffffffffffffffffffffffffffffffffff16815260200191505060405180910390f35b806000806101000a81548173ffffffffffffffffffffffffffffffffffffffff021916908373ffffffffffffffffffffffffffffffffffffffff16021790555050565b60008060009054906101000a900473ffffffffffffffffffffffffffffffffffffffff1690509056fea26469706673582212203e8ad497826ebc8dae9fa9cfcbd0b8132c38b9f424e281eea28aaf08bb04b41164736f6c63430006080033",
  "immutableReferences": {},
  "source": "// SPDX-License-Identifier: UNLICENSED\npragma solidity ^0.6.8;\n\ninterface GovernanceContract {\n    function isGovernor(address addr) external virtual returns(bool);\n}\n\ncontract OwnedByGovernor {\n    address private _governanceContract;\n\n    function updateGovernanceContract(address addr) external {\n        _governanceContract = addr;\n    }\n\n    function governanceContract() external view returns(address) {\n        return _governanceContract;\n    }\n\n    modifier onlyGovernor() {\n//        require(\n//            GovernanceContract(_governanceContract).isGovernor(msg.sender),\n//            \"Only a governor can call this function.\"\n//        );\n        _;\n    }\n}\n",
  "sourcePath": "/Users/mehmet/Code/Temple/ankr/contracts/core/OwnedByGovernor.sol",
  "compiler": {
    "name": "solc",
    "version": "0.6.8+commit.0bbfe453.Emscripten.clang"
  },
  "schemaVersion": "3.2.3",
  "updatedAt": "2020-09-28T19:41:48.592Z",
  "devdoc": {
    "methods": {}
  },
  "userdoc": {
    "methods": {}
  }
}