{
  "contractName": "Auctions",
  "abi": [
    {
      "inputs": [
        {
          "internalType": "address",
          "name": "providerContract",
          "type": "address"
        }
      ],
      "stateMutability": "nonpayable",
      "type": "constructor"
    },
    {
      "inputs": [
        {
          "internalType": "uint256",
          "name": "processingFee",
          "type": "uint256"
        },
        {
          "internalType": "uint256",
          "name": "period",
          "type": "uint256"
        }
      ],
      "name": "startAuction",
      "outputs": [],
      "stateMutability": "nonpayable",
      "type": "function"
    },
    {
      "inputs": [
        {
          "internalType": "uint256",
          "name": "auctionIndex",
          "type": "uint256"
        },
        {
          "internalType": "uint256",
          "name": "processingFee",
          "type": "uint256"
        }
      ],
      "name": "bid",
      "outputs": [],
      "stateMutability": "nonpayable",
      "type": "function"
    },
    {
      "inputs": [
        {
          "internalType": "uint256",
          "name": "auctionIndex",
          "type": "uint256"
        }
      ],
      "name": "auctionDetails",
      "outputs": [
        {
          "internalType": "uint256",
          "name": "processingFee",
          "type": "uint256"
        },
        {
          "internalType": "enum Auctions.AuctionStatus",
          "name": "status",
          "type": "uint8"
        },
        {
          "internalType": "uint256",
          "name": "bestBidAmount",
          "type": "uint256"
        },
        {
          "internalType": "address",
          "name": "bestBidder",
          "type": "address"
        }
      ],
      "stateMutability": "view",
      "type": "function"
    }
  ],
  "bytecode": "0x608060405234801561001057600080fd5b506040516108693803806108698339818101604052602081101561003357600080fd5b810190808051906020019092919050505080600160006101000a81548173ffffffffffffffffffffffffffffffffffffffff021916908373ffffffffffffffffffffffffffffffffffffffff160217905550506107d4806100956000396000f3fe608060405234801561001057600080fd5b50600436106100415760003560e01c80634fee13fc14610046578063598647f81461007e5780638603d31a146100b6575b600080fd5b61007c6004803603604081101561005c57600080fd5b810190808035906020019092919080359060200190929190505050610147565b005b6100b46004803603604081101561009457600080fd5b81019080803590602001909291908035906020019092919050505061022d565b005b6100e2600480360360208110156100cc57600080fd5b81019080803590602001909291905050506104ad565b604051808581526020018460018111156100f857fe5b60ff1681526020018381526020018273ffffffffffffffffffffffffffffffffffffffff1673ffffffffffffffffffffffffffffffffffffffff16815260200194505050505060405180910390f35b61014f6106c0565b8281600001818152505061018161017262015180846105aa90919063ffffffff16565b4261063090919063ffffffff16565b816020018181525050600081908060018154018082558091505060019003906000526020600020906005020160009091909190915060008201518160000155602082015181600101556040820151816002016000820151816000015560208201518160010160006101000a81548173ffffffffffffffffffffffffffffffffffffffff021916908373ffffffffffffffffffffffffffffffffffffffff16021790555050505050505050565b600160009054906101000a900473ffffffffffffffffffffffffffffffffffffffff1673ffffffffffffffffffffffffffffffffffffffff16636b074a076102736106b8565b6040518263ffffffff1660e01b8152600401808273ffffffffffffffffffffffffffffffffffffffff1673ffffffffffffffffffffffffffffffffffffffff16815260200191505060206040518083038186803b1580156102d357600080fd5b505afa1580156102e7573d6000803e3d6000fd5b505050506040513d60208110156102fd57600080fd5b810190808051906020019092919050505061031757600080fd5b600080838154811061032557fe5b906000526020600020906005020190508060000154821115610392576040517f08c379a000000000000000000000000000000000000000000000000000000000815260040180806020018281038252603b815260200180610718603b913960400191505060405180910390fd5b6000816002016000015411156104025780600201600001548210610401576040517f08c379a000000000000000000000000000000000000000000000000000000000815260040180806020018281038252602b815260200180610774602b913960400191505060405180910390fd5b5b818160040160006104116106b8565b73ffffffffffffffffffffffffffffffffffffffff1673ffffffffffffffffffffffffffffffffffffffff168152602001908152602001600020819055508181600201600001819055506104636106b8565b8160020160010160006101000a81548173ffffffffffffffffffffffffffffffffffffffff021916908373ffffffffffffffffffffffffffffffffffffffff160217905550505050565b6000806000806104bb6106c0565b600086815481106104c857fe5b9060005260206000209060050201604051806060016040529081600082015481526020016001820154815260200160028201604051806040016040529081600082015481526020016001820160009054906101000a900473ffffffffffffffffffffffffffffffffffffffff1673ffffffffffffffffffffffffffffffffffffffff1673ffffffffffffffffffffffffffffffffffffffff1681525050815250509050806000015194508060200151421115610587576001935061058c565b600093505b80604001516000015192508060400151602001519150509193509193565b6000808314156105bd576000905061062a565b60008284029050828482816105ce57fe5b0414610625576040517f08c379a00000000000000000000000000000000000000000000000000000000081526004018080602001828103825260218152602001806107536021913960400191505060405180910390fd5b809150505b92915050565b6000808284019050838110156106ae576040517f08c379a000000000000000000000000000000000000000000000000000000000815260040180806020018281038252601b8152602001807f536166654d6174683a206164646974696f6e206f766572666c6f77000000000081525060200191505060405180910390fd5b8091505092915050565b600033905090565b604051806060016040528060008152602001600081526020016106e16106e7565b81525090565b604051806040016040528060008152602001600073ffffffffffffffffffffffffffffffffffffffff168152509056fe596f75206e65656420746f206f66666572206c657373207468616e206f7220657175616c20746f207265717565737465722773206275646765742e536166654d6174683a206d756c7469706c69636174696f6e206f766572666c6f77596f75206e65656420746f206f66666572206c657373207468616e20746865206c6f77657374206269642ea26469706673582212205738fcd3a2f3260b34acb566dfbc8ec8628480f994220d7c22159488e250946764736f6c63430006080033",
  "immutableReferences": {},
  "source": "// SPDX-License-Identifier: UNLICENSED\npragma solidity ^0.6.8;\n\nimport \"./lib/SafeMath.sol\";\nimport \"./lib/Context.sol\";\n\ninterface ProviderContract {\n    function isProvider(address addr) external view returns (bool);\n}\n\ncontract Auctions is Context {\n    using SafeMath for uint256;\n\n    enum AuctionStatus {OnGoing, Completed}\n\n    struct Auction {\n        uint256 processingFee; // fee for request an auction\n        uint256 endTime; // timestamp. after that time auction will be closed to new bids\n        Winner winner; // the lowest bid\n        mapping (address => uint256) bids; // bidders and their bid amounts\n    }\n\n    struct Winner {\n        uint256 bidAmount;\n        address bidder;\n    }\n\n    Auction[] private _auctions;\n    address private _providerContract;\n\n    modifier onlyProvider() {\n        require(ProviderContract(_providerContract).isProvider(_msgSender()));\n        _;\n    }\n\n    // TODO: events\n\n    constructor(\n      address providerContract\n    ) public {\n      _providerContract = providerContract;\n    }\n\n    function startAuction(\n      uint256 processingFee,\n      uint256 period // that period of time (in days) auction will long\n      ) external {\n        // TODO: validations\n\n        Auction memory auction;\n        auction.processingFee = processingFee;\n        auction.endTime = block.timestamp.add(period.mul(1 days));\n        _auctions.push(auction);\n    }\n\n    function bid(\n        uint256 auctionIndex,\n        uint256 processingFee\n    )\n    external\n    onlyProvider {\n        // TODO: validations\n        // TODO: if auction is still active\n        Auction storage auction = _auctions[auctionIndex];\n        require(processingFee <= auction.processingFee, \"You need to offer less than or equal to requester's budget.\");\n        if (auction.winner.bidAmount > 0) {\n            require(processingFee < auction.winner.bidAmount, \"You need to offer less than the lowest bid.\");\n        }\n        auction.bids[_msgSender()] = processingFee;\n        auction.winner.bidAmount = processingFee;\n        auction.winner.bidder = _msgSender();\n    }\n\n    function auctionDetails(uint256 auctionIndex)\n        public\n        view\n        returns (\n            uint256 processingFee,\n            AuctionStatus status,\n            uint256 bestBidAmount,\n            address bestBidder\n        ) {\n            Auction memory auction = _auctions[auctionIndex];\n            processingFee = auction.processingFee;\n            if (block.timestamp > auction.endTime) {\n                status = AuctionStatus.Completed; // completed auction\n            } else {\n                status = AuctionStatus.OnGoing; // ongoing auction\n            }\n            bestBidAmount = auction.winner.bidAmount;\n            bestBidder = auction.winner.bidder;\n    }\n}\n",
  "sourcePath": "/Users/anilkucukrecep/Code/Personal/st/contracts/contracts/Auctions.sol",
  "compiler": {
    "name": "solc",
    "version": "0.6.8+commit.0bbfe453.Emscripten.clang"
  },
  "schemaVersion": "3.2.5",
  "updatedAt": "2020-09-26T03:46:15.313Z",
  "devdoc": {
    "methods": {}
  },
  "userdoc": {
    "methods": {}
  }
}