{
  "contractName": "Governance",
  "abi": [
    {
      "inputs": [],
      "stateMutability": "nonpayable",
      "type": "constructor"
    },
    {
      "inputs": [
        {
          "internalType": "address",
          "name": "governor",
          "type": "address"
        }
      ],
      "name": "isGovernor",
      "outputs": [
        {
          "internalType": "bool",
          "name": "",
          "type": "bool"
        }
      ],
      "stateMutability": "view",
      "type": "function",
      "constant": true
    },
    {
      "inputs": [],
      "name": "getGovernors",
      "outputs": [
        {
          "internalType": "address[]",
          "name": "",
          "type": "address[]"
        }
      ],
      "stateMutability": "view",
      "type": "function",
      "constant": true
    }
  ],
  "bytecode": "0x608060405234801561001057600080fd5b506000339080600181540180825580915050600190039060005260206000200160009091909190916101000a81548173ffffffffffffffffffffffffffffffffffffffff021916908373ffffffffffffffffffffffffffffffffffffffff16021790555061025f806100836000396000f3fe608060405234801561001057600080fd5b50600436106100365760003560e01c8063e43581b81461003b578063f80b535214610097575b600080fd5b61007d6004803603602081101561005157600080fd5b81019080803573ffffffffffffffffffffffffffffffffffffffff1690602001909291905050506100f6565b604051808215151515815260200191505060405180910390f35b61009f61019b565b6040518080602001828103825283818151815260200191508051906020019060200280838360005b838110156100e25780820151818401526020810190506100c7565b505050509050019250505060405180910390f35b600060019050610196565b600080549050811015610190578273ffffffffffffffffffffffffffffffffffffffff166000828154811061013257fe5b9060005260206000200160009054906101000a900473ffffffffffffffffffffffffffffffffffffffff1673ffffffffffffffffffffffffffffffffffffffff161415610183576001915050610196565b8080600101915050610101565b50600090505b919050565b6060600080548060200260200160405190810160405280929190818152602001828054801561021f57602002820191906000526020600020905b8160009054906101000a900473ffffffffffffffffffffffffffffffffffffffff1673ffffffffffffffffffffffffffffffffffffffff16815260200190600101908083116101d5575b505050505090509056fea26469706673582212208fd3e14d3551a83db655fdff60f1f478ec4a97a04fd107a839fb2c9ab77df62d64736f6c63430006080033",
  "immutableReferences": {},
  "source": "//SPDX-License-Identifier: MIT\npragma solidity ^0.6.8;\n\n// TODO: update this contract\n\ncontract Governance {\n    address[] private _governors;\n\n    struct Parameter {\n        uint id;\n        string name;\n        uint value; \n    }\n\n    constructor() public {\n        _governors.push(msg.sender);\n    }\n    \n    /**\n        Returns true if given address is a governor\n        @return bool\n    */\n    function isGovernor(address governor) public view returns (bool) {\n        return true;\n        // TODO: convert to mapping\n        for (uint index = 0; index < _governors.length; index++) {\n            if (_governors[index] == governor)   \n                return true;\n        }\n\n        return false;\n    }\n\n    /**\n        Returns all governors in system\n        @return address[]\n    */\n    function getGovernors() external view returns (address              [] memory) {\n        return _governors;\n    }\n}\n\n",
  "sourcePath": "/Users/anilkucukrecep/Code/Personal/st/contracts/contracts/Governance.sol",
  "compiler": {
    "name": "solc",
    "version": "0.6.8+commit.0bbfe453.Emscripten.clang"
  },
  "schemaVersion": "3.2.5",
  "updatedAt": "2020-09-26T03:53:37.852Z",
  "networkType": "ethereum",
  "devdoc": {
    "methods": {
      "getGovernors()": {
        "returns": {
          "_0": "address[]"
        }
      },
      "isGovernor(address)": {
        "returns": {
          "_0": "bool"
        }
      }
    }
  },
  "userdoc": {
    "methods": {
      "getGovernors()": {
        "notice": "Returns all governors in system"
      },
      "isGovernor(address)": {
        "notice": "Returns true if given address is a governor"
      }
    }
  }
}