{
  "contractName": "MarketPlace",
  "abi": [
    {
      "inputs": [],
      "name": "governanceContract",
      "outputs": [
        {
          "internalType": "address",
          "name": "",
          "type": "address"
        }
      ],
      "stateMutability": "view",
      "type": "function"
    },
    {
      "inputs": [
        {
          "internalType": "address",
          "name": "addr",
          "type": "address"
        }
      ],
      "name": "updateGovernanceContract",
      "outputs": [],
      "stateMutability": "nonpayable",
      "type": "function"
    },
    {
      "inputs": [
        {
          "internalType": "uint256",
          "name": "ethUsd",
          "type": "uint256"
        }
      ],
      "name": "updateEthUsdRate",
      "outputs": [],
      "stateMutability": "nonpayable",
      "type": "function"
    },
    {
      "inputs": [
        {
          "internalType": "uint256",
          "name": "ankrEth",
          "type": "uint256"
        }
      ],
      "name": "updateAnkrEthRate",
      "outputs": [],
      "stateMutability": "nonpayable",
      "type": "function"
    },
    {
      "inputs": [],
      "name": "ethUsdRate",
      "outputs": [
        {
          "internalType": "uint256",
          "name": "",
          "type": "uint256"
        }
      ],
      "stateMutability": "view",
      "type": "function"
    },
    {
      "inputs": [],
      "name": "ankrEthRate",
      "outputs": [
        {
          "internalType": "uint256",
          "name": "",
          "type": "uint256"
        }
      ],
      "stateMutability": "view",
      "type": "function"
    }
  ],
  "bytecode": "0x608060405234801561001057600080fd5b50610257806100206000396000f3fe608060405234801561001057600080fd5b50600436106100625760003560e01c80631031e6da146100675780633b478fc51461009557806353b65153146100b35780636faf60a0146100d157806373c4abcb14610115578063b172b22214610143575b600080fd5b6100936004803603602081101561007d57600080fd5b810190808035906020019092919050505061018d565b005b61009d610197565b6040518082815260200191505060405180910390f35b6100bb6101a1565b6040518082815260200191505060405180910390f35b610113600480360360208110156100e757600080fd5b81019080803573ffffffffffffffffffffffffffffffffffffffff1690602001909291905050506101ab565b005b6101416004803603602081101561012b57600080fd5b81019080803590602001909291905050506101ee565b005b61014b6101f8565b604051808273ffffffffffffffffffffffffffffffffffffffff1673ffffffffffffffffffffffffffffffffffffffff16815260200191505060405180910390f35b8060018190555050565b6000600154905090565b6000600254905090565b806000806101000a81548173ffffffffffffffffffffffffffffffffffffffff021916908373ffffffffffffffffffffffffffffffffffffffff16021790555050565b8060028190555050565b60008060009054906101000a900473ffffffffffffffffffffffffffffffffffffffff1690509056fea264697066735822122036bdefdbef8af66b0fd6e930283b311abc2b2813529aea39660be17dcb53ff3764736f6c63430006080033",
  "immutableReferences": {},
  "source": "//SPDX-License-Identifier: UNLICENSED\npragma solidity ^0.6.8;\n\nimport \"./core/OwnedByGovernor.sol\";\n\ncontract MarketPlace is OwnedByGovernor {\n    // ETH-USD\n    // ANKR-ETH\n    uint256 private _ethUsd;\n    uint256 private _ankrEth;\n\n    function updateEthUsdRate(uint256 ethUsd) external onlyGovernor {\n        _ethUsd = ethUsd;\n    }\n\n    function updateAnkrEthRate(uint256 ankrEth) external onlyGovernor {\n        _ankrEth = ankrEth;\n    }\n\n    function ethUsdRate() public view returns (uint256) {\n        return _ethUsd;\n    }\n\n    function ankrEthRate() public view returns (uint256) {\n        return _ankrEth;\n    }\n}\n",
  "sourcePath": "/Users/mehmet/Code/Temple/ankr/contracts/MarketPlace.sol",
  "compiler": {
    "name": "solc",
    "version": "0.6.8+commit.0bbfe453.Emscripten.clang"
  },
  "schemaVersion": "3.2.5",
  "updatedAt": "2020-10-04T21:02:17.958Z",
  "devdoc": {
    "methods": {}
  },
  "userdoc": {
    "methods": {}
  }
}