{
  "contractName": "MicroPool",
  "abi": [
    {
      "inputs": [
        {
          "internalType": "address",
          "name": "tokenContract",
          "type": "address"
        }
      ],
      "stateMutability": "nonpayable",
      "type": "constructor"
    },
    {
      "anonymous": false,
      "inputs": [
        {
          "indexed": true,
          "internalType": "uint256",
          "name": "poolIndex",
          "type": "uint256"
        },
        {
          "indexed": true,
          "internalType": "address payable",
          "name": "provider",
          "type": "address"
        },
        {
          "indexed": false,
          "internalType": "address",
          "name": "creator",
          "type": "address"
        }
      ],
      "name": "PoolCreated",
      "type": "event"
    },
    {
      "anonymous": false,
      "inputs": [
        {
          "indexed": true,
          "internalType": "uint256",
          "name": "poolIndex",
          "type": "uint256"
        },
        {
          "indexed": true,
          "internalType": "address",
          "name": "user",
          "type": "address"
        },
        {
          "indexed": false,
          "internalType": "uint256",
          "name": "stakeAmount",
          "type": "uint256"
        }
      ],
      "name": "UserStaked",
      "type": "event"
    },
    {
      "anonymous": false,
      "inputs": [
        {
          "indexed": true,
          "internalType": "uint256",
          "name": "poolIndex",
          "type": "uint256"
        },
        {
          "indexed": true,
          "internalType": "address",
          "name": "user",
          "type": "address"
        },
        {
          "indexed": false,
          "internalType": "uint256",
          "name": "unstakeAmount",
          "type": "uint256"
        }
      ],
      "name": "UserUnstaked",
      "type": "event"
    },
    {
      "inputs": [],
      "name": "governanceContract",
      "outputs": [
        {
          "internalType": "address",
          "name": "",
          "type": "address"
        }
      ],
      "stateMutability": "view",
      "type": "function",
      "constant": true
    },
    {
      "inputs": [
        {
          "internalType": "address",
          "name": "addr",
          "type": "address"
        }
      ],
      "name": "updateGovernanceContract",
      "outputs": [],
      "stateMutability": "nonpayable",
      "type": "function"
    },
    {
      "inputs": [
        {
          "internalType": "uint256",
          "name": "poolIndex",
          "type": "uint256"
        }
      ],
      "name": "pushToBeacon",
      "outputs": [],
      "stateMutability": "nonpayable",
      "type": "function"
    },
    {
      "inputs": [
        {
          "internalType": "uint256",
          "name": "poolIndex",
          "type": "uint256"
        },
        {
          "internalType": "address payable",
          "name": "validator",
          "type": "address"
        },
        {
          "internalType": "bytes",
          "name": "pubkey",
          "type": "bytes"
        },
        {
          "internalType": "bytes",
          "name": "withdrawal_credentials",
          "type": "bytes"
        },
        {
          "internalType": "bytes",
          "name": "signature",
          "type": "bytes"
        },
        {
          "internalType": "bytes32",
          "name": "deposit_data_root",
          "type": "bytes32"
        }
      ],
      "name": "updatePoolData",
      "outputs": [],
      "stateMutability": "nonpayable",
      "type": "function"
    },
    {
      "inputs": [],
      "name": "initializePool",
      "outputs": [],
      "stateMutability": "nonpayable",
      "type": "function"
    },
    {
      "inputs": [
        {
          "internalType": "uint256",
          "name": "poolIndex",
          "type": "uint256"
        }
      ],
      "name": "stake",
      "outputs": [],
      "stateMutability": "payable",
      "type": "function",
      "payable": true
    },
    {
      "inputs": [
        {
          "internalType": "uint256",
          "name": "poolIndex",
          "type": "uint256"
        }
      ],
      "name": "unstake",
      "outputs": [],
      "stateMutability": "payable",
      "type": "function",
      "payable": true
    },
    {
      "inputs": [
        {
          "internalType": "uint256",
          "name": "poolIndex",
          "type": "uint256"
        },
        {
          "internalType": "uint256",
          "name": "compensatedAmount",
          "type": "uint256"
        }
      ],
      "name": "updateSlashingOfAPool",
      "outputs": [
        {
          "internalType": "bool",
          "name": "",
          "type": "bool"
        }
      ],
      "stateMutability": "nonpayable",
      "type": "function"
    },
    {
      "inputs": [
        {
          "internalType": "address",
          "name": "tokenContract",
          "type": "address"
        }
      ],
      "name": "updateTokenContract",
      "outputs": [],
      "stateMutability": "nonpayable",
      "type": "function"
    },
    {
      "inputs": [
        {
          "internalType": "uint256",
          "name": "poolIndex",
          "type": "uint256"
        }
      ],
      "name": "poolDetails",
      "outputs": [
        {
          "internalType": "enum MicroPool.PoolStatus",
          "name": "status",
          "type": "uint8"
        },
        {
          "internalType": "uint256",
          "name": "startTime",
          "type": "uint256"
        },
        {
          "internalType": "uint256",
          "name": "endTime",
          "type": "uint256"
        },
        {
          "internalType": "uint256",
          "name": "rewardBalance",
          "type": "uint256"
        },
        {
          "internalType": "uint256",
          "name": "claimedBalance",
          "type": "uint256"
        },
        {
          "internalType": "uint256",
          "name": "providerOwe",
          "type": "uint256"
        },
        {
          "internalType": "uint256",
          "name": "nodeFee",
          "type": "uint256"
        },
        {
          "internalType": "uint256",
          "name": "totalStakedAmount",
          "type": "uint256"
        },
        {
          "internalType": "address payable",
          "name": "provider",
          "type": "address"
        },
        {
          "internalType": "address payable",
          "name": "validator",
          "type": "address"
        }
      ],
      "stateMutability": "view",
      "type": "function",
      "constant": true
    },
    {
      "inputs": [
        {
          "internalType": "address",
          "name": "addr",
          "type": "address"
        }
      ],
      "name": "updateInsuranceContract",
      "outputs": [],
      "stateMutability": "nonpayable",
      "type": "function"
    },
    {
      "inputs": [],
      "name": "claimable",
      "outputs": [
        {
          "internalType": "bool",
          "name": "",
          "type": "bool"
        }
      ],
      "stateMutability": "view",
      "type": "function",
      "constant": true
    },
    {
      "inputs": [],
      "name": "getBack",
      "outputs": [],
      "stateMutability": "payable",
      "type": "function",
      "payable": true
    }
  ],
  "bytecode": "0x60806040526000600260006101000a81548160ff0219169083151502179055507307b39f4fde4a38bace212b546dac87c58dfe3fdc600460006101000a81548173ffffffffffffffffffffffffffffffffffffffff021916908373ffffffffffffffffffffffffffffffffffffffff16021790555034801561008057600080fd5b506040516127b33803806127b3833981810160405260208110156100a357600080fd5b810190808051906020019092919050505080600260016101000a81548173ffffffffffffffffffffffffffffffffffffffff021916908373ffffffffffffffffffffffffffffffffffffffff1602179055508073ffffffffffffffffffffffffffffffffffffffff1663fc1c5052306040518263ffffffff1660e01b8152600401808273ffffffffffffffffffffffffffffffffffffffff1673ffffffffffffffffffffffffffffffffffffffff168152602001915050600060405180830381600087803b15801561017457600080fd5b505af1158015610188573d6000803e3d6000fd5b50505050506126178061019c6000396000f3fe6080604052600436106100c25760003560e01c80637a260b3f1161007f578063a694fc3a11610059578063a694fc3a14610395578063af38d757146103c3578063b172b222146103f2578063e0693c7514610449576100c2565b80637a260b3f146102465780637eae16261461033a578063989ced2614610344576100c2565b8063250e6de0146100c75780632e17de78146100de57806340a4f4391461010c57806352b25efa146101475780636faf60a01461019857806379c1659e146101e9575b600080fd5b3480156100d357600080fd5b506100dc610673565b005b61010a600480360360208110156100f457600080fd5b8101908080359060200190929190505050610917565b005b34801561011857600080fd5b506101456004803603602081101561012f57600080fd5b8101908080359060200190929190505050610c58565b005b34801561015357600080fd5b506101966004803603602081101561016a57600080fd5b81019080803573ffffffffffffffffffffffffffffffffffffffff1690602001909291905050506111d0565b005b3480156101a457600080fd5b506101e7600480360360208110156101bb57600080fd5b81019080803573ffffffffffffffffffffffffffffffffffffffff169060200190929190505050611214565b005b3480156101f557600080fd5b5061022c6004803603604081101561020c57600080fd5b810190808035906020019092919080359060200190929190505050611257565b604051808215151515815260200191505060405180910390f35b34801561025257600080fd5b5061027f6004803603602081101561026957600080fd5b81019080803590602001909291905050506112a1565b604051808b600381111561028f57fe5b60ff1681526020018a81526020018981526020018881526020018781526020018681526020018581526020018481526020018373ffffffffffffffffffffffffffffffffffffffff1673ffffffffffffffffffffffffffffffffffffffff1681526020018273ffffffffffffffffffffffffffffffffffffffff1673ffffffffffffffffffffffffffffffffffffffff1681526020019a505050505050505050505060405180910390f35b610342611679565b005b34801561035057600080fd5b506103936004803603602081101561036757600080fd5b81019080803573ffffffffffffffffffffffffffffffffffffffff1690602001909291905050506116c2565b005b6103c1600480360360208110156103ab57600080fd5b8101908080359060200190929190505050611706565b005b3480156103cf57600080fd5b506103d8611add565b604051808215151515815260200191505060405180910390f35b3480156103fe57600080fd5b50610407611af4565b604051808273ffffffffffffffffffffffffffffffffffffffff1673ffffffffffffffffffffffffffffffffffffffff16815260200191505060405180910390f35b34801561045557600080fd5b50610671600480360360c081101561046c57600080fd5b8101908080359060200190929190803573ffffffffffffffffffffffffffffffffffffffff169060200190929190803590602001906401000000008111156104b357600080fd5b8201836020820111156104c557600080fd5b803590602001918460018302840111640100000000831117156104e757600080fd5b91908080601f016020809104026020016040519081016040528093929190818152602001838380828437600081840152601f19601f8201169050808301925050505050505091929192908035906020019064010000000081111561054a57600080fd5b82018360208201111561055c57600080fd5b8035906020019184600183028401116401000000008311171561057e57600080fd5b91908080601f016020809104026020016040519081016040528093929190818152602001838380828437600081840152601f19601f820116905080830192505050505050509192919290803590602001906401000000008111156105e157600080fd5b8201836020820111156105f357600080fd5b8035906020019184600183028401116401000000008311171561061557600080fd5b91908080601f016020809104026020016040519081016040528093929190818152602001838380828437600081840152601f19601f82011690508083019250505050505050919291929080359060200190929190505050611b1d565b005b61067b6123e7565b610683612412565b3381610160019073ffffffffffffffffffffffffffffffffffffffff16908173ffffffffffffffffffffffffffffffffffffffff168152505042816020018181525050600181908060018154018082558091505060019003906000526020600020906012020160009091909190915060008201518160000160006101000a81548160ff0219169083600381111561071657fe5b02179055506020820151816001015560408201518160020155606082015181600301556080820151816004015560a0820151816005015560c0820151816006015560e082015181600701556101008201518160080155610120820151816009015561014082015181600a015561016082015181600b0160006101000a81548173ffffffffffffffffffffffffffffffffffffffff021916908373ffffffffffffffffffffffffffffffffffffffff16021790555061018082015181600c0160006101000a81548173ffffffffffffffffffffffffffffffffffffffff021916908373ffffffffffffffffffffffffffffffffffffffff1602179055506101a082015181600e0160008201518160000190805190602001906108389291906124be565b5060208201518160010190805190602001906108559291906124be565b5060408201518160020190805190602001906108729291906124be565b5060608201518160030155505050503373ffffffffffffffffffffffffffffffffffffffff166108b0600180805490506120bf90919063ffffffff16565b7f1a7a1d16c3ec9167827a7be3534be26288720a0bdd3de56d290f415db3d3e0a633604051808273ffffffffffffffffffffffffffffffffffffffff1673ffffffffffffffffffffffffffffffffffffffff16815260200191505060405180910390a35050565b60006001828154811061092657fe5b906000526020600020906012020190506000600381111561094357fe5b8160000160009054906101000a900460ff16600381111561096057fe5b146109b6576040517f08c379a00000000000000000000000000000000000000000000000000000000081526004018080602001828103825260338152602001806125646033913960400191505060405180910390fd5b600081600d0160003373ffffffffffffffffffffffffffffffffffffffff1673ffffffffffffffffffffffffffffffffffffffff1681526020019081526020016000206000015411610a53576040517f08c379a000000000000000000000000000000000000000000000000000000000815260040180806020018281038252602a8152602001806125b8602a913960400191505060405180910390fd5b6000610af082600d0160003373ffffffffffffffffffffffffffffffffffffffff1673ffffffffffffffffffffffffffffffffffffffff1681526020019081526020016000206001015483600d0160003373ffffffffffffffffffffffffffffffffffffffff1673ffffffffffffffffffffffffffffffffffffffff1681526020019081526020016000206000015461210990919063ffffffff16565b90503373ffffffffffffffffffffffffffffffffffffffff166108fc829081150290604051600060405180830381858888f19350505050158015610b38573d6000803e3d6000fd5b50610b9482600d0160003373ffffffffffffffffffffffffffffffffffffffff1673ffffffffffffffffffffffffffffffffffffffff1681526020019081526020016000206000015483600801546120bf90919063ffffffff16565b826008018190555081600d0160003373ffffffffffffffffffffffffffffffffffffffff1673ffffffffffffffffffffffffffffffffffffffff16815260200190815260200160002060008082016000905560018201600090556002820160006101000a81549060ff021916905550503373ffffffffffffffffffffffffffffffffffffffff16837fe2f02dc2168917563b46b1f788ea74861c381103710158efe9976c0bb3333677836040518082815260200191505060405180910390a3505050565b610c60612412565b60018281548110610c6d57fe5b9060005260206000209060120201604051806101c00160405290816000820160009054906101000a900460ff166003811115610ca557fe5b6003811115610cb057fe5b8152602001600182015481526020016002820154815260200160038201548152602001600482015481526020016005820154815260200160068201548152602001600782015481526020016008820154815260200160098201548152602001600a8201548152602001600b820160009054906101000a900473ffffffffffffffffffffffffffffffffffffffff1673ffffffffffffffffffffffffffffffffffffffff1673ffffffffffffffffffffffffffffffffffffffff168152602001600c820160009054906101000a900473ffffffffffffffffffffffffffffffffffffffff1673ffffffffffffffffffffffffffffffffffffffff1673ffffffffffffffffffffffffffffffffffffffff168152602001600e8201604051806080016040529081600082018054600181600116156101000203166002900480601f016020809104026020016040519081016040528092919081815260200182805460018160011615610100020316600290048015610e6d5780601f10610e4257610100808354040283529160200191610e6d565b820191906000526020600020905b815481529060010190602001808311610e5057829003601f168201915b50505050508152602001600182018054600181600116156101000203166002900480601f016020809104026020016040519081016040528092919081815260200182805460018160011615610100020316600290048015610f0f5780601f10610ee457610100808354040283529160200191610f0f565b820191906000526020600020905b815481529060010190602001808311610ef257829003601f168201915b50505050508152602001600282018054600181600116156101000203166002900480601f016020809104026020016040519081016040528092919081815260200182805460018160011615610100020316600290048015610fb15780601f10610f8657610100808354040283529160200191610fb1565b820191906000526020600020905b815481529060010190602001808311610f9457829003601f168201915b50505050508152602001600382015481525050815250509050600460009054906101000a900473ffffffffffffffffffffffffffffffffffffffff1673ffffffffffffffffffffffffffffffffffffffff1663228951186801bc16d674ec800000836101a0015160000151846101a0015160200151856101a0015160400151866101a00151606001516040518663ffffffff1660e01b815260040180806020018060200180602001858152602001848103845288818151815260200191508051906020019080838360005b8381101561109757808201518184015260208101905061107c565b50505050905090810190601f1680156110c45780820380516001836020036101000a031916815260200191505b50848103835287818151815260200191508051906020019080838360005b838110156110fd5780820151818401526020810190506110e2565b50505050905090810190601f16801561112a5780820380516001836020036101000a031916815260200191505b50848103825286818151815260200191508051906020019080838360005b83811015611163578082015181840152602081019050611148565b50505050905090810190601f1680156111905780820380516001836020036101000a031916815260200191505b509750505050505050506000604051808303818588803b1580156111b357600080fd5b505af11580156111c7573d6000803e3d6000fd5b50505050505050565b80600360006101000a81548173ffffffffffffffffffffffffffffffffffffffff021916908373ffffffffffffffffffffffffffffffffffffffff16021790555050565b806000806101000a81548173ffffffffffffffffffffffffffffffffffffffff021916908373ffffffffffffffffffffffffffffffffffffffff16021790555050565b6000806001848154811061126757fe5b9060005260206000209060120201905061128e83826005015461210990919063ffffffff16565b8160050181905550600191505092915050565b6000806000806000806000806000806112b8612412565b60018c815481106112c557fe5b9060005260206000209060120201604051806101c00160405290816000820160009054906101000a900460ff1660038111156112fd57fe5b600381111561130857fe5b8152602001600182015481526020016002820154815260200160038201548152602001600482015481526020016005820154815260200160068201548152602001600782015481526020016008820154815260200160098201548152602001600a8201548152602001600b820160009054906101000a900473ffffffffffffffffffffffffffffffffffffffff1673ffffffffffffffffffffffffffffffffffffffff1673ffffffffffffffffffffffffffffffffffffffff168152602001600c820160009054906101000a900473ffffffffffffffffffffffffffffffffffffffff1673ffffffffffffffffffffffffffffffffffffffff1673ffffffffffffffffffffffffffffffffffffffff168152602001600e8201604051806080016040529081600082018054600181600116156101000203166002900480601f0160208091040260200160405190810160405280929190818152602001828054600181600116156101000203166002900480156114c55780601f1061149a576101008083540402835291602001916114c5565b820191906000526020600020905b8154815290600101906020018083116114a857829003601f168201915b50505050508152602001600182018054600181600116156101000203166002900480601f0160208091040260200160405190810160405280929190818152602001828054600181600116156101000203166002900480156115675780601f1061153c57610100808354040283529160200191611567565b820191906000526020600020905b81548152906001019060200180831161154a57829003601f168201915b50505050508152602001600282018054600181600116156101000203166002900480601f0160208091040260200160405190810160405280929190818152602001828054600181600116156101000203166002900480156116095780601f106115de57610100808354040283529160200191611609565b820191906000526020600020905b8154815290600101906020018083116115ec57829003601f168201915b5050505050815260200160038201548152505081525050905080600001519a50806020015199508060400151985080606001519750806080015196508060c0015195508060e001519450806101000151935080610160015192508061018001519150509193959799509193959799565b3373ffffffffffffffffffffffffffffffffffffffff166108fc479081150290604051600060405180830381858888f193505050501580156116bf573d6000803e3d6000fd5b50565b80600260016101000a81548173ffffffffffffffffffffffffffffffffffffffff021916908373ffffffffffffffffffffffffffffffffffffffff16021790555050565b60006001828154811061171557fe5b906000526020600020906012020190506000600381111561173257fe5b8160000160009054906101000a900460ff16600381111561174f57fe5b146117c2576040517f08c379a00000000000000000000000000000000000000000000000000000000081526004018080602001828103825260198152602001807f63616e6e6f74207374616b6520746f207468697320706f6f6c0000000000000081525060200191505060405180910390fd5b60006117f682600701546117e86801bc16d674ec8000003461219190919063ffffffff16565b6121db90919063ffffffff16565b9050600061180d82346120bf90919063ffffffff16565b905060008111611885576040517f08c379a000000000000000000000000000000000000000000000000000000000815260040180806020018281038252601e8152602001807f596f7520646f6e2774206861766520656e6f7567682062616c616e63652e000081525060200191505060405180910390fd5b600061189e84600801548361210990919063ffffffff16565b90506801bc16d674ec800000811061195e5760018460000160006101000a81548160ff021916908360038111156118d157fe5b021790555060006118f46801bc16d674ec800000836120bf90919063ffffffff16565b9050600081111561195c5761191281846120bf90919063ffffffff16565b92503373ffffffffffffffffffffffffffffffffffffffff166108fc829081150290604051600060405180830381858888f1935050505015801561195a573d6000803e3d6000fd5b505b505b61197582856008015461210990919063ffffffff16565b8460080181905550600084600d0160003373ffffffffffffffffffffffffffffffffffffffff1673ffffffffffffffffffffffffffffffffffffffff16815260200190815260200160002090506119d983826000015461210990919063ffffffff16565b81600001819055506119f884826001015461210990919063ffffffff16565b81600101819055508085600d0160003373ffffffffffffffffffffffffffffffffffffffff1673ffffffffffffffffffffffffffffffffffffffff16815260200190815260200160002060008201548160000155600182015481600101556002820160009054906101000a900460ff168160020160006101000a81548160ff0219169083151502179055509050503373ffffffffffffffffffffffffffffffffffffffff16867fe2f02dc2168917563b46b1f788ea74861c381103710158efe9976c0bb3333677856040518082815260200191505060405180910390a3505050505050565b6000600260009054906101000a900460ff16905090565b60008060009054906101000a900473ffffffffffffffffffffffffffffffffffffffff16905090565b611b256123e7565b611b2d612412565b60018881548110611b3a57fe5b9060005260206000209060120201604051806101c00160405290816000820160009054906101000a900460ff166003811115611b7257fe5b6003811115611b7d57fe5b8152602001600182015481526020016002820154815260200160038201548152602001600482015481526020016005820154815260200160068201548152602001600782015481526020016008820154815260200160098201548152602001600a8201548152602001600b820160009054906101000a900473ffffffffffffffffffffffffffffffffffffffff1673ffffffffffffffffffffffffffffffffffffffff1673ffffffffffffffffffffffffffffffffffffffff168152602001600c820160009054906101000a900473ffffffffffffffffffffffffffffffffffffffff1673ffffffffffffffffffffffffffffffffffffffff1673ffffffffffffffffffffffffffffffffffffffff168152602001600e8201604051806080016040529081600082018054600181600116156101000203166002900480601f016020809104026020016040519081016040528092919081815260200182805460018160011615610100020316600290048015611d3a5780601f10611d0f57610100808354040283529160200191611d3a565b820191906000526020600020905b815481529060010190602001808311611d1d57829003601f168201915b50505050508152602001600182018054600181600116156101000203166002900480601f016020809104026020016040519081016040528092919081815260200182805460018160011615610100020316600290048015611ddc5780601f10611db157610100808354040283529160200191611ddc565b820191906000526020600020905b815481529060010190602001808311611dbf57829003601f168201915b50505050508152602001600282018054600181600116156101000203166002900480601f016020809104026020016040519081016040528092919081815260200182805460018160011615610100020316600290048015611e7e5780601f10611e5357610100808354040283529160200191611e7e565b820191906000526020600020905b815481529060010190602001808311611e6157829003601f168201915b50505050508152602001600382015481525050815250509050858260000181905250848260200181905250838260400181905250828260600181815250508681610180019073ffffffffffffffffffffffffffffffffffffffff16908173ffffffffffffffffffffffffffffffffffffffff168152505081816101a00181905250428160200181815250508060018981548110611f1757fe5b906000526020600020906012020160008201518160000160006101000a81548160ff02191690836003811115611f4957fe5b02179055506020820151816001015560408201518160020155606082015181600301556080820151816004015560a0820151816005015560c0820151816006015560e082015181600701556101008201518160080155610120820151816009015561014082015181600a015561016082015181600b0160006101000a81548173ffffffffffffffffffffffffffffffffffffffff021916908373ffffffffffffffffffffffffffffffffffffffff16021790555061018082015181600c0160006101000a81548173ffffffffffffffffffffffffffffffffffffffff021916908373ffffffffffffffffffffffffffffffffffffffff1602179055506101a082015181600e01600082015181600001908051906020019061206b9291906124be565b5060208201518160010190805190602001906120889291906124be565b5060408201518160020190805190602001906120a59291906124be565b506060820151816003015550509050505050505050505050565b600061210183836040518060400160405280601e81526020017f536166654d6174683a207375627472616374696f6e206f766572666c6f770000815250612261565b905092915050565b600080828401905083811015612187576040517f08c379a000000000000000000000000000000000000000000000000000000000815260040180806020018281038252601b8152602001807f536166654d6174683a206164646974696f6e206f766572666c6f77000000000081525060200191505060405180910390fd5b8091505092915050565b60006121d383836040518060400160405280601a81526020017f536166654d6174683a206469766973696f6e206279207a65726f000000000000815250612321565b905092915050565b6000808314156121ee576000905061225b565b60008284029050828482816121ff57fe5b0414612256576040517f08c379a00000000000000000000000000000000000000000000000000000000081526004018080602001828103825260218152602001806125976021913960400191505060405180910390fd5b809150505b92915050565b600083831115829061230e576040517f08c379a00000000000000000000000000000000000000000000000000000000081526004018080602001828103825283818151815260200191508051906020019080838360005b838110156122d35780820151818401526020810190506122b8565b50505050905090810190601f1680156123005780820380516001836020036101000a031916815260200191505b509250505060405180910390fd5b5060008385039050809150509392505050565b600080831182906123cd576040517f08c379a00000000000000000000000000000000000000000000000000000000081526004018080602001828103825283818151815260200191508051906020019080838360005b83811015612392578082015181840152602081019050612377565b50505050905090810190601f1680156123bf5780820380516001836020036101000a031916815260200191505b509250505060405180910390fd5b5060008385816123d957fe5b049050809150509392505050565b6040518060800160405280606081526020016060815260200160608152602001600080191681525090565b604051806101c001604052806000600381111561242b57fe5b815260200160008152602001600081526020016000815260200160008152602001600081526020016000815260200160008152602001600081526020016000815260200160008152602001600073ffffffffffffffffffffffffffffffffffffffff168152602001600073ffffffffffffffffffffffffffffffffffffffff1681526020016124b86123e7565b81525090565b828054600181600116156101000203166002900490600052602060002090601f016020900481019282601f106124ff57805160ff191683800117855561252d565b8280016001018555821561252d579182015b8281111561252c578251825591602001919060010190612511565b5b50905061253a919061253e565b5090565b61256091905b8082111561255c576000816000905550600101612544565b5090565b9056fe596f752063616e206f6e6c792063616e63656c20796f7572207374616b652066726f6d20612070656e64696e6720706f6f6c2e536166654d6174683a206d756c7469706c69636174696f6e206f766572666c6f77596f7520646f6e27742068617665207374616b65642062616c616e636520696e207468697320706f6f6ca264697066735822122036129359f134ffeff2f5150bb2b8fc13bed5910143c6505de2596b3a052769a664736f6c63430006080033",
  "immutableReferences": {},
  "source": "// SPDX-License-Identifier: UNLICENSED\npragma solidity ^0.6.8;\n\nimport \"./lib/SafeMath.sol\";\nimport \"./core/OwnedByGovernor.sol\";\n\ninterface IDepositContract {\n    /// @notice A processed deposit event.\n    event DepositEvent(\n        bytes pubkey,\n        bytes withdrawal_credentials,\n        bytes amount,\n        bytes signature,\n        bytes index\n    );\n\n    /// @notice Submit a Phase 0 DepositData object.\n    /// @param pubkey A BLS12-381 public key.\n    /// @param withdrawal_credentials Commitment to a public key for withdrawals.\n    /// @param signature A BLS12-381 signature.\n    /// @param deposit_data_root The SHA-256 hash of the SSZ-encoded DepositData object.\n    /// Used as a protection against malformed input.\n    function deposit(\n        bytes calldata pubkey,\n        bytes calldata withdrawal_credentials,\n        bytes calldata signature,\n        bytes32 deposit_data_root\n    ) external payable;\n\n    /// @notice Query the current deposit root hash.\n    /// @return The deposit root hash.\n    function get_deposit_root() external view returns (bytes32);\n\n    /// @notice Query the current deposit count.\n    /// @return The deposit count encoded as a little endian 64-bit number.\n    function get_deposit_count() external view returns (bytes memory);\n}\n\ninterface TokenContract {\n    function mint(address account, uint256 amount) external;\n\n    function updateMicroPoolContract(address microPoolContract) external;\n}\n\ninterface ProviderContract {\n    function isProvider(address addr) external view returns (bool);\n}\n\ninterface Beacon {\n    function isProvider(address addr) external view returns (bool);\n}\n\ncontract MicroPool is OwnedByGovernor {\n    using SafeMath for uint256;\n\n    enum PoolStatus {Pending, OnGoing, Completed, Canceled}\n\n    struct PoolStake {\n        uint256 amount;\n        uint256 fee;\n        bool isClaimed;\n    }\n\n    struct BeaconDeposit {\n        bytes pubkey;\n        bytes withdrawal_credentials;\n        bytes signature;\n        bytes32 deposit_data_root;\n    }\n\n    struct Pool {\n        PoolStatus status;\n        uint256 startTime; // init time\n        uint256 endTime; // canceled or completed time\n        uint256 rewardBalance; // total balance after rewarded\n        uint256 claimedBalance; // pool members' claimed amount\n        uint256 compensatedBalance; // TODO: is required?\n        uint256 providerOwe; // TODO: who will decide it? governor, this contract, etc.\n        uint256 nodeFee; // eth price\n        uint256 totalStakedAmount; // total amount of user stakes\n        uint256 numberOfSlashing;\n        uint256 totalSlashedAmount;\n        // TODO: last slashing check time (as block number)\n        address payable provider; // provider address\n        address payable validator; // validator address\n        // address payable[] members; // pool members\n        mapping(address => PoolStake) stakes; // stakes of a pool members\n\n        BeaconDeposit depositData;\n    }\n\n    Pool[] private _pools;\n    bool private _claimable = false; // governors will make it true after ETH 2.0\n    address private _tokenContract;\n    address _insuranceContract;\n    address _beaconContract = 0x07b39F4fDE4A38bACe212b546dAc87C58DfE3fDC;\n\n    event PoolCreated(\n        uint256 indexed poolIndex,\n        address payable indexed provider,\n        address creator\n    );\n    event UserStaked(\n        uint256 indexed poolIndex,\n        address indexed user,\n        uint256 stakeAmount\n    );\n    event UserUnstaked(\n        uint256 indexed poolIndex,\n        address indexed user,\n        uint256 unstakeAmount\n    );\n\n    constructor(address tokenContract) public {\n        _tokenContract = tokenContract;\n        TokenContract(tokenContract).updateMicroPoolContract(address(this));\n    }\n\n    function pushToBeacon(uint256 poolIndex) public onlyGovernor {\n        Pool memory pool = _pools[poolIndex];\n\n        // require(pool.totalStakedAmount >= 32 ether && pool.status == PoolStatus.Pending, \"Not enough ether\");\n\n        // pool.totalStakedAmount = 0;\n\n        // _pools[poolIndex] = pool;\n        IDepositContract(_beaconContract).deposit{value: 32 ether}(pool.depositData.pubkey, pool.depositData.withdrawal_credentials, pool.depositData.signature, pool.depositData.deposit_data_root);\n    }\n\n    function updatePoolData(\n        uint256 poolIndex,\n        address payable validator,\n        bytes memory pubkey,\n        bytes memory withdrawal_credentials,\n        bytes memory signature,\n        bytes32 deposit_data_root) public {\n\n            BeaconDeposit memory d;\n            Pool memory pool = _pools[poolIndex];\n            d.pubkey = pubkey;\n            d.withdrawal_credentials = withdrawal_credentials;\n            d.signature = signature;\n            d.deposit_data_root = deposit_data_root;\n\n            pool.validator = validator;\n            pool.depositData = d;\n            // pool.providerOwe = providerOwe;\n            pool.startTime = block.timestamp;\n            _pools[poolIndex] = pool;\n        }\n\n    /**\n        Providers can call this function to create a new pool.\n    */\n    function initializePool() external {\n        // TODO: validations\n        // TODO: _nodeFee usd to eth\n        BeaconDeposit memory d;\n        Pool memory pool;\n\n        pool.provider = msg.sender;\n        // pool.providerOwe = providerOwe;\n        pool.startTime = block.timestamp;\n        _pools.push(pool);\n\n        emit PoolCreated(\n            _pools.length.sub(1),\n            msg.sender,\n            msg.sender\n        );\n    }\n\n    /**\n        Users can call to stake to given pool\n        @param poolIndex uint256\n    */\n    // TODO: not mint AETH directly, wait for pool reach 32 eth.\n    function stake(uint256 poolIndex) external payable {\n        Pool storage pool = _pools[poolIndex];\n        require(pool.status == PoolStatus.Pending, \"cannot stake to this pool\");\n        uint256 fee = msg.value.div(32 ether).mul(pool.nodeFee);\n        uint256 stakeAmount = msg.value.sub(fee);\n        // TODO: min. stake amount\n        require(stakeAmount > 0, \"You don't have enough balance.\");\n\n        uint256 newTotalAmount = stakeAmount.add(pool.totalStakedAmount);\n        if (newTotalAmount >= 32 ether) {\n            pool.status = PoolStatus.OnGoing;\n            uint256 excessAmount = newTotalAmount.sub(32 ether);\n            if (excessAmount > 0) {\n                stakeAmount = stakeAmount.sub(excessAmount);\n                msg.sender.transfer(excessAmount);\n            }\n        }\n        pool.totalStakedAmount = pool.totalStakedAmount.add(stakeAmount);\n\n        PoolStake storage userStake = pool.stakes[msg.sender];\n\n        userStake.amount = userStake.amount.add(stakeAmount);\n        userStake.fee = userStake.fee.add(fee);\n        pool.stakes[msg.sender] = userStake;\n\n        emit UserStaked(poolIndex, msg.sender, stakeAmount);\n\n        // Mint AEth for user\n        // TokenContract(_tokenContract).mint(msg.sender, stakeAmount.div(2));\n    }\n\n    /**\n        Users can call to unstake from given pool\n        until pool start\n        @param poolIndex uint256\n    */\n    function unstake(uint256 poolIndex) external payable {\n        Pool storage pool = _pools[poolIndex];\n        // TODO: validations\n        require(\n            pool.status == PoolStatus.Pending,\n            \"You can only cancel your stake from a pending pool.\"\n        );\n        require(\n            pool.stakes[msg.sender].amount > 0,\n            \"You don't have staked balance in this pool\"\n        );\n        // require(\n        //     TokenContract(_tokenContract).burnFrom(\n        //         msg.sender,\n        //         pool.stakes[msg.sender].amount.div(2)\n        //     ),\n        //     \"You need to approve this contract first.\"\n        // );\n\n        uint256 unstakeAmount = pool.stakes[msg.sender].amount.add(\n            pool.stakes[msg.sender].fee\n        );\n\n        msg.sender.transfer(unstakeAmount);\n        pool.totalStakedAmount = pool.totalStakedAmount.sub(\n            pool.stakes[msg.sender].amount\n        );\n        delete pool.stakes[msg.sender];\n\n        emit UserStaked(poolIndex, msg.sender, unstakeAmount);\n    }\n\n    // TODO: only Insurance contract can call this\n    function updateSlashingOfAPool(uint256 poolIndex, uint256 compensatedAmount)\n        public\n        returns (bool)\n    {\n        // TODO: validations\n\n        Pool storage pool = _pools[poolIndex];\n        pool.compensatedBalance = pool.compensatedBalance.add(\n            compensatedAmount\n        );\n\n        return true;\n    }\n\n    /**\n        Governer calls this function to change aEth token contract address\n        @param tokenContract address\n    */\n    function updateTokenContract(address tokenContract) external onlyGovernor {\n        _tokenContract = tokenContract;\n    }\n\n    /**\n        Get pool details for given pool array index\n\n        @param poolIndex uint256\n    */\n    function poolDetails(uint256 poolIndex)\n        public\n        view\n        returns (\n            PoolStatus status,\n            uint256 startTime,\n            uint256 endTime,\n            uint256 rewardBalance,\n            uint256 claimedBalance,\n            uint256 providerOwe,\n            uint256 nodeFee,\n            uint256 totalStakedAmount,\n            address payable provider,\n            address payable validator\n        )\n    //address payable[] memory members\n    {\n        Pool memory pool = _pools[poolIndex];\n        status = pool.status;\n        startTime = pool.startTime;\n        endTime = pool.endTime;\n        rewardBalance = pool.rewardBalance;\n        claimedBalance = pool.claimedBalance;\n        providerOwe = pool.providerOwe;\n        nodeFee = pool.nodeFee;\n        totalStakedAmount = pool.totalStakedAmount;\n        provider = pool.provider;\n        validator = pool.validator;\n        //members = pool.members;\n    }\n\n    function updateInsuranceContract(address addr) public onlyGovernor {\n        _insuranceContract = addr;\n    }\n\n    function claimable() public view returns (bool) {\n        return _claimable;\n    }\n    \n    // TODO: Only for development\n    function getBack() public payable {\n        msg.sender.transfer(address(this).balance);\n    }\n}\n",
  "sourcePath": "/Users/anilkucukrecep/Code/Personal/st/contracts/contracts/MicroPool.sol",
  "compiler": {
    "name": "solc",
    "version": "0.6.8+commit.0bbfe453.Emscripten.clang"
  },
  "schemaVersion": "3.2.5",
  "updatedAt": "2020-10-04T21:05:54.263Z",
  "networkType": "ethereum",
  "devdoc": {
    "methods": {
      "poolDetails(uint256)": {
        "params": {
          "poolIndex": "uint256"
        }
      },
      "stake(uint256)": {
        "params": {
          "poolIndex": "uint256"
        }
      },
      "unstake(uint256)": {
        "params": {
          "poolIndex": "uint256"
        }
      },
      "updateTokenContract(address)": {
        "params": {
          "tokenContract": "address"
        }
      }
    }
  },
  "userdoc": {
    "methods": {
      "initializePool()": {
        "notice": "Providers can call this function to create a new pool."
      },
      "poolDetails(uint256)": {
        "notice": "Get pool details for given pool array index"
      },
      "stake(uint256)": {
        "notice": "Users can call to stake to given pool"
      },
      "unstake(uint256)": {
        "notice": "Users can call to unstake from given pool until pool start"
      },
      "updateTokenContract(address)": {
        "notice": "Governer calls this function to change aEth token contract address"
      }
    }
  }
}