{
  "contractName": "MicroPool",
  "abi": [
    {
      "inputs": [
        {
          "internalType": "address",
          "name": "tokenContract",
          "type": "address"
        }
      ],
      "stateMutability": "nonpayable",
      "type": "constructor"
    },
    {
      "anonymous": false,
      "inputs": [
        {
          "indexed": true,
          "internalType": "uint256",
          "name": "poolIndex",
          "type": "uint256"
        },
        {
          "indexed": true,
          "internalType": "address payable",
          "name": "provider",
          "type": "address"
        },
        {
          "indexed": true,
          "internalType": "address payable",
          "name": "validator",
          "type": "address"
        },
        {
          "indexed": false,
          "internalType": "address",
          "name": "creator",
          "type": "address"
        }
      ],
      "name": "PoolCreated",
      "type": "event"
    },
    {
      "anonymous": false,
      "inputs": [
        {
          "indexed": true,
          "internalType": "uint256",
          "name": "poolIndex",
          "type": "uint256"
        },
        {
          "indexed": true,
          "internalType": "address",
          "name": "user",
          "type": "address"
        },
        {
          "indexed": false,
          "internalType": "uint256",
          "name": "stakeAmount",
          "type": "uint256"
        }
      ],
      "name": "UserStaked",
      "type": "event"
    },
    {
      "anonymous": false,
      "inputs": [
        {
          "indexed": true,
          "internalType": "uint256",
          "name": "poolIndex",
          "type": "uint256"
        },
        {
          "indexed": true,
          "internalType": "address",
          "name": "user",
          "type": "address"
        },
        {
          "indexed": false,
          "internalType": "uint256",
          "name": "unstakeAmount",
          "type": "uint256"
        }
      ],
      "name": "UserUnstaked",
      "type": "event"
    },
    {
      "inputs": [],
      "name": "governanceContract",
      "outputs": [
        {
          "internalType": "address",
          "name": "",
          "type": "address"
        }
      ],
      "stateMutability": "view",
      "type": "function",
      "constant": true
    },
    {
      "inputs": [
        {
          "internalType": "address",
          "name": "addr",
          "type": "address"
        }
      ],
      "name": "updateGovernanceContract",
      "outputs": [],
      "stateMutability": "nonpayable",
      "type": "function"
    },
    {
      "inputs": [
        {
          "internalType": "address payable",
          "name": "validator",
          "type": "address"
        },
        {
          "internalType": "uint256",
          "name": "nodeFee",
          "type": "uint256"
        }
      ],
      "name": "initializePool",
      "outputs": [],
      "stateMutability": "nonpayable",
      "type": "function"
    },
    {
      "inputs": [
        {
          "internalType": "uint256",
          "name": "poolIndex",
          "type": "uint256"
        }
      ],
      "name": "stake",
      "outputs": [],
      "stateMutability": "payable",
      "type": "function",
      "payable": true
    },
    {
      "inputs": [
        {
          "internalType": "uint256",
          "name": "poolIndex",
          "type": "uint256"
        }
      ],
      "name": "unstake",
      "outputs": [],
      "stateMutability": "payable",
      "type": "function",
      "payable": true
    },
    {
      "inputs": [
        {
          "internalType": "uint256",
          "name": "poolIndex",
          "type": "uint256"
        },
        {
          "internalType": "uint256",
          "name": "compensatedAmount",
          "type": "uint256"
        }
      ],
      "name": "updateSlashingOfAPool",
      "outputs": [
        {
          "internalType": "bool",
          "name": "",
          "type": "bool"
        }
      ],
      "stateMutability": "nonpayable",
      "type": "function"
    },
    {
      "inputs": [
        {
          "internalType": "address",
          "name": "tokenContract",
          "type": "address"
        }
      ],
      "name": "updateTokenContract",
      "outputs": [],
      "stateMutability": "nonpayable",
      "type": "function"
    },
    {
      "inputs": [
        {
          "internalType": "uint256",
          "name": "poolIndex",
          "type": "uint256"
        }
      ],
      "name": "poolDetails",
      "outputs": [
        {
          "internalType": "enum MicroPool.PoolStatus",
          "name": "status",
          "type": "uint8"
        },
        {
          "internalType": "uint256",
          "name": "startTime",
          "type": "uint256"
        },
        {
          "internalType": "uint256",
          "name": "endTime",
          "type": "uint256"
        },
        {
          "internalType": "uint256",
          "name": "rewardBalance",
          "type": "uint256"
        },
        {
          "internalType": "uint256",
          "name": "claimedBalance",
          "type": "uint256"
        },
        {
          "internalType": "uint256",
          "name": "providerOwe",
          "type": "uint256"
        },
        {
          "internalType": "uint256",
          "name": "nodeFee",
          "type": "uint256"
        },
        {
          "internalType": "uint256",
          "name": "totalStakedAmount",
          "type": "uint256"
        },
        {
          "internalType": "address payable",
          "name": "provider",
          "type": "address"
        },
        {
          "internalType": "address payable",
          "name": "validator",
          "type": "address"
        }
      ],
      "stateMutability": "view",
      "type": "function",
      "constant": true
    },
    {
      "inputs": [
        {
          "internalType": "address",
          "name": "addr",
          "type": "address"
        }
      ],
      "name": "updateInsuranceContract",
      "outputs": [],
      "stateMutability": "nonpayable",
      "type": "function"
    },
    {
      "inputs": [],
      "name": "claimable",
      "outputs": [
        {
          "internalType": "bool",
          "name": "",
          "type": "bool"
        }
      ],
      "stateMutability": "view",
      "type": "function",
      "constant": true
    }
  ],
  "bytecode": "0x60806040526000600260006101000a81548160ff02191690831515021790555034801561002b57600080fd5b506040516116073803806116078339818101604052602081101561004e57600080fd5b810190808051906020019092919050505080600260016101000a81548173ffffffffffffffffffffffffffffffffffffffff021916908373ffffffffffffffffffffffffffffffffffffffff1602179055508073ffffffffffffffffffffffffffffffffffffffff1663fc1c5052306040518263ffffffff1660e01b8152600401808273ffffffffffffffffffffffffffffffffffffffff1673ffffffffffffffffffffffffffffffffffffffff168152602001915050600060405180830381600087803b15801561011f57600080fd5b505af1158015610133573d6000803e3d6000fd5b50505050506114c0806101476000396000f3fe6080604052600436106100915760003560e01c8063989ced2611610059578063989ced26146102b7578063a694fc3a14610308578063af38d75714610336578063b172b22214610365578063d6d9ba2b146103bc57610091565b80632e17de781461009657806352b25efa146100c45780636faf60a01461011557806379c1659e146101665780637a260b3f146101c3575b600080fd5b6100c2600480360360208110156100ac57600080fd5b8101908080359060200190929190505050610417565b005b3480156100d057600080fd5b50610113600480360360208110156100e757600080fd5b81019080803573ffffffffffffffffffffffffffffffffffffffff169060200190929190505050610758565b005b34801561012157600080fd5b506101646004803603602081101561013857600080fd5b81019080803573ffffffffffffffffffffffffffffffffffffffff16906020019092919050505061079c565b005b34801561017257600080fd5b506101a96004803603604081101561018957600080fd5b8101908080359060200190929190803590602001909291905050506107df565b604051808215151515815260200191505060405180910390f35b3480156101cf57600080fd5b506101fc600480360360208110156101e657600080fd5b8101908080359060200190929190505050610829565b604051808b600381111561020c57fe5b60ff1681526020018a81526020018981526020018881526020018781526020018681526020018581526020018481526020018373ffffffffffffffffffffffffffffffffffffffff1673ffffffffffffffffffffffffffffffffffffffff1681526020018273ffffffffffffffffffffffffffffffffffffffff1673ffffffffffffffffffffffffffffffffffffffff1681526020019a505050505050505050505060405180910390f35b3480156102c357600080fd5b50610306600480360360208110156102da57600080fd5b81019080803573ffffffffffffffffffffffffffffffffffffffff1690602001909291905050506109fd565b005b6103346004803603602081101561031e57600080fd5b8101908080359060200190929190505050610a41565b005b34801561034257600080fd5b5061034b610d7b565b604051808215151515815260200191505060405180910390f35b34801561037157600080fd5b5061037a610d92565b604051808273ffffffffffffffffffffffffffffffffffffffff1673ffffffffffffffffffffffffffffffffffffffff16815260200191505060405180910390f35b3480156103c857600080fd5b50610415600480360360408110156103df57600080fd5b81019080803573ffffffffffffffffffffffffffffffffffffffff16906020019092919080359060200190929190505050610dbb565b005b60006001828154811061042657fe5b90600052602060002090600e020190506000600381111561044357fe5b8160000160009054906101000a900460ff16600381111561046057fe5b146104b6576040517f08c379a000000000000000000000000000000000000000000000000000000000815260040180806020018281038252603381526020018061140d6033913960400191505060405180910390fd5b600081600d0160003373ffffffffffffffffffffffffffffffffffffffff1673ffffffffffffffffffffffffffffffffffffffff1681526020019081526020016000206000015411610553576040517f08c379a000000000000000000000000000000000000000000000000000000000815260040180806020018281038252602a815260200180611461602a913960400191505060405180910390fd5b60006105f082600d0160003373ffffffffffffffffffffffffffffffffffffffff1673ffffffffffffffffffffffffffffffffffffffff1681526020019081526020016000206001015483600d0160003373ffffffffffffffffffffffffffffffffffffffff1673ffffffffffffffffffffffffffffffffffffffff1681526020019081526020016000206000015461104590919063ffffffff16565b90503373ffffffffffffffffffffffffffffffffffffffff166108fc829081150290604051600060405180830381858888f19350505050158015610638573d6000803e3d6000fd5b5061069482600d0160003373ffffffffffffffffffffffffffffffffffffffff1673ffffffffffffffffffffffffffffffffffffffff1681526020019081526020016000206000015483600801546110cd90919063ffffffff16565b826008018190555081600d0160003373ffffffffffffffffffffffffffffffffffffffff1673ffffffffffffffffffffffffffffffffffffffff16815260200190815260200160002060008082016000905560018201600090556002820160006101000a81549060ff021916905550503373ffffffffffffffffffffffffffffffffffffffff16837fe2f02dc2168917563b46b1f788ea74861c381103710158efe9976c0bb3333677836040518082815260200191505060405180910390a3505050565b80600360006101000a81548173ffffffffffffffffffffffffffffffffffffffff021916908373ffffffffffffffffffffffffffffffffffffffff16021790555050565b806000806101000a81548173ffffffffffffffffffffffffffffffffffffffff021916908373ffffffffffffffffffffffffffffffffffffffff16021790555050565b600080600184815481106107ef57fe5b90600052602060002090600e0201905061081683826005015461104590919063ffffffff16565b8160050181905550600191505092915050565b60008060008060008060008060008061084061136d565b60018c8154811061084d57fe5b90600052602060002090600e0201604051806101a00160405290816000820160009054906101000a900460ff16600381111561088557fe5b600381111561089057fe5b8152602001600182015481526020016002820154815260200160038201548152602001600482015481526020016005820154815260200160068201548152602001600782015481526020016008820154815260200160098201548152602001600a8201548152602001600b820160009054906101000a900473ffffffffffffffffffffffffffffffffffffffff1673ffffffffffffffffffffffffffffffffffffffff1673ffffffffffffffffffffffffffffffffffffffff168152602001600c820160009054906101000a900473ffffffffffffffffffffffffffffffffffffffff1673ffffffffffffffffffffffffffffffffffffffff1673ffffffffffffffffffffffffffffffffffffffff1681525050905080600001519a50806020015199508060400151985080606001519750806080015196508060c0015195508060e001519450806101000151935080610160015192508061018001519150509193959799509193959799565b80600260016101000a81548173ffffffffffffffffffffffffffffffffffffffff021916908373ffffffffffffffffffffffffffffffffffffffff16021790555050565b600060018281548110610a5057fe5b90600052602060002090600e020190506000610a948260070154610a866801bc16d674ec8000003461111790919063ffffffff16565b61116190919063ffffffff16565b90506000610aab82346110cd90919063ffffffff16565b905060008111610b23576040517f08c379a000000000000000000000000000000000000000000000000000000000815260040180806020018281038252601e8152602001807f596f7520646f6e2774206861766520656e6f7567682062616c616e63652e000081525060200191505060405180910390fd5b6000610b3c84600801548361104590919063ffffffff16565b90506801bc16d674ec8000008110610bfc5760018460000160006101000a81548160ff02191690836003811115610b6f57fe5b02179055506000610b926801bc16d674ec800000836110cd90919063ffffffff16565b90506000811115610bfa57610bb081846110cd90919063ffffffff16565b92503373ffffffffffffffffffffffffffffffffffffffff166108fc829081150290604051600060405180830381858888f19350505050158015610bf8573d6000803e3d6000fd5b505b505b610c1382856008015461104590919063ffffffff16565b8460080181905550600084600d0160003373ffffffffffffffffffffffffffffffffffffffff1673ffffffffffffffffffffffffffffffffffffffff1681526020019081526020016000209050610c7783826000015461104590919063ffffffff16565b8160000181905550610c9684826001015461104590919063ffffffff16565b81600101819055508085600d0160003373ffffffffffffffffffffffffffffffffffffffff1673ffffffffffffffffffffffffffffffffffffffff16815260200190815260200160002060008201548160000155600182015481600101556002820160009054906101000a900460ff168160020160006101000a81548160ff0219169083151502179055509050503373ffffffffffffffffffffffffffffffffffffffff16867fe2f02dc2168917563b46b1f788ea74861c381103710158efe9976c0bb3333677856040518082815260200191505060405180910390a3505050505050565b6000600260009054906101000a900460ff16905090565b60008060009054906101000a900473ffffffffffffffffffffffffffffffffffffffff16905090565b610dc361136d565b3381610160019073ffffffffffffffffffffffffffffffffffffffff16908173ffffffffffffffffffffffffffffffffffffffff16815250508281610180019073ffffffffffffffffffffffffffffffffffffffff16908173ffffffffffffffffffffffffffffffffffffffff1681525050818160e00181815250504281602001818152505060018190806001815401808255809150506001900390600052602060002090600e020160009091909190915060008201518160000160006101000a81548160ff02191690836003811115610e9957fe5b02179055506020820151816001015560408201518160020155606082015181600301556080820151816004015560a0820151816005015560c0820151816006015560e082015181600701556101008201518160080155610120820151816009015561014082015181600a015561016082015181600b0160006101000a81548173ffffffffffffffffffffffffffffffffffffffff021916908373ffffffffffffffffffffffffffffffffffffffff16021790555061018082015181600c0160006101000a81548173ffffffffffffffffffffffffffffffffffffffff021916908373ffffffffffffffffffffffffffffffffffffffff16021790555050508273ffffffffffffffffffffffffffffffffffffffff163373ffffffffffffffffffffffffffffffffffffffff16610fdd600180805490506110cd90919063ffffffff16565b7f070da9921e58d11c5e49283ff7930c3c05239838f04b056bb98b767be695587933604051808273ffffffffffffffffffffffffffffffffffffffff1673ffffffffffffffffffffffffffffffffffffffff16815260200191505060405180910390a4505050565b6000808284019050838110156110c3576040517f08c379a000000000000000000000000000000000000000000000000000000000815260040180806020018281038252601b8152602001807f536166654d6174683a206164646974696f6e206f766572666c6f77000000000081525060200191505060405180910390fd5b8091505092915050565b600061110f83836040518060400160405280601e81526020017f536166654d6174683a207375627472616374696f6e206f766572666c6f7700008152506111e7565b905092915050565b600061115983836040518060400160405280601a81526020017f536166654d6174683a206469766973696f6e206279207a65726f0000000000008152506112a7565b905092915050565b60008083141561117457600090506111e1565b600082840290508284828161118557fe5b04146111dc576040517f08c379a00000000000000000000000000000000000000000000000000000000081526004018080602001828103825260218152602001806114406021913960400191505060405180910390fd5b809150505b92915050565b6000838311158290611294576040517f08c379a00000000000000000000000000000000000000000000000000000000081526004018080602001828103825283818151815260200191508051906020019080838360005b8381101561125957808201518184015260208101905061123e565b50505050905090810190601f1680156112865780820380516001836020036101000a031916815260200191505b509250505060405180910390fd5b5060008385039050809150509392505050565b60008083118290611353576040517f08c379a00000000000000000000000000000000000000000000000000000000081526004018080602001828103825283818151815260200191508051906020019080838360005b838110156113185780820151818401526020810190506112fd565b50505050905090810190601f1680156113455780820380516001836020036101000a031916815260200191505b509250505060405180910390fd5b50600083858161135f57fe5b049050809150509392505050565b604051806101a001604052806000600381111561138657fe5b815260200160008152602001600081526020016000815260200160008152602001600081526020016000815260200160008152602001600081526020016000815260200160008152602001600073ffffffffffffffffffffffffffffffffffffffff168152602001600073ffffffffffffffffffffffffffffffffffffffff168152509056fe596f752063616e206f6e6c792063616e63656c20796f7572207374616b652066726f6d20612070656e64696e6720706f6f6c2e536166654d6174683a206d756c7469706c69636174696f6e206f766572666c6f77596f7520646f6e27742068617665207374616b65642062616c616e636520696e207468697320706f6f6ca264697066735822122066535d4d4ae325f01708ffa60d0c047b9289d4a73c1c5a5744526cc516f93c7264736f6c63430006080033",
  "immutableReferences": {},
  "source": "// SPDX-License-Identifier: UNLICENSED\npragma solidity ^0.6.8;\n\nimport \"./lib/SafeMath.sol\";\nimport \"./core/OwnedByGovernor.sol\";\n\ninterface TokenContract {\n    function mint(address account, uint256 amount) external;\n    function updateMicroPoolContract(address microPoolContract) external;\n}\n\ninterface ProviderContract {\n    function isProvider(address addr) external view returns (bool);\n}\n\ncontract MicroPool is OwnedByGovernor {\n    using SafeMath for uint256;\n\n    enum PoolStatus {Pending, OnGoing, Completed, Canceled}\n\n    struct PoolStake {\n        uint256 amount;\n        uint256 fee;\n        bool isClaimed;\n    }\n\n    struct Pool {\n        PoolStatus status;\n        uint256 startTime; // init time\n        uint256 endTime; // canceled or completed time\n        uint256 rewardBalance; // total balance after rewarded\n        uint256 claimedBalance; // pool members' claimed amount\n        uint256 compensatedBalance; // TODO: is required?\n        uint256 providerOwe; // TODO: who will decide it? governor, this contract, etc.\n        uint256 nodeFee; // eth price\n        uint256 totalStakedAmount; // total amount of user stakes\n        uint256 numberOfSlashing;\n        uint256 totalSlashedAmount;\n        // TODO: last slashing check time (as block number)\n        address payable provider; // provider address\n        address payable validator; // validator address\n        // address payable[] members; // pool members\n        mapping(address => PoolStake) stakes; // stakes of a pool members\n    }\n\n    Pool[] private _pools;\n    bool private _claimable = false; // governors will make it true after ETH 2.0\n    address private _tokenContract;\n    address _insuranceContract;\n\n    event PoolCreated(\n        uint256 indexed poolIndex,\n        address payable indexed provider,\n        address payable indexed validator,\n        address creator\n    );\n    event UserStaked(\n        uint256 indexed poolIndex,\n        address indexed user,\n        uint256 stakeAmount\n    );\n    event UserUnstaked(\n        uint256 indexed poolIndex,\n        address indexed user,\n        uint256 unstakeAmount\n    );\n\n    constructor(\n        address tokenContract\n    ) public {\n        _tokenContract = tokenContract;\n        TokenContract(tokenContract).updateMicroPoolContract(address(this));\n    }\n\n    /**\n        Governor can call this function to create a new pool for given provider.\n        @param validator address\n    */\n    function initializePool(\n        address payable validator,\n        uint256 nodeFee\n    ) external {\n        // TODO: validations\n        // TODO: _nodeFee usd to eth\n        Pool memory pool;\n        pool.provider = msg.sender;\n        pool.validator = validator;\n        pool.nodeFee = nodeFee;\n        // pool.providerOwe = providerOwe;\n        pool.startTime = block.timestamp;\n        _pools.push(pool);\n        emit PoolCreated(_pools.length.sub(1), msg.sender, validator, msg.sender);\n    }\n\n    /**\n        Users can call to stake to given pool\n        @param poolIndex uint256\n    */\n    // TODO: not mint AETH directly, wait for pool reach 32 eth.\n    function stake(uint256 poolIndex) external payable {\n\n        Pool storage pool = _pools[poolIndex];\n        uint256 fee = msg.value.div(32 ether).mul(pool.nodeFee);\n        uint256 stakeAmount = msg.value.sub(fee);\n        // TODO: min. stake amount\n        require(stakeAmount > 0, \"You don't have enough balance.\");\n\n        uint256 newTotalAmount = stakeAmount.add(pool.totalStakedAmount);\n        if (newTotalAmount >= 32 ether) {\n            pool.status = PoolStatus.OnGoing;\n            uint256 excessAmount = newTotalAmount.sub(32 ether);\n            if (excessAmount > 0) {\n                stakeAmount = stakeAmount.sub(excessAmount);\n                msg.sender.transfer(excessAmount);\n            }\n        }\n        pool.totalStakedAmount = pool.totalStakedAmount.add(stakeAmount);\n\n        PoolStake storage userStake = pool.stakes[msg.sender];\n\n        userStake.amount = userStake.amount.add(stakeAmount);\n        userStake.fee = userStake.fee.add(fee);\n        pool.stakes[msg.sender] = userStake;\n\n        emit UserStaked(poolIndex, msg.sender, stakeAmount);\n\n        // Mint AEth for user\n        // TokenContract(_tokenContract).mint(msg.sender, stakeAmount.div(2));\n    }\n\n    /**\n        Users can call to unstake from given pool\n        until pool start\n        @param poolIndex uint256\n    */\n    function unstake(uint256 poolIndex) external payable {\n        Pool storage pool = _pools[poolIndex];\n        // TODO: validations\n        require(\n            pool.status == PoolStatus.Pending,\n            \"You can only cancel your stake from a pending pool.\"\n        );\n        require(\n            pool.stakes[msg.sender].amount > 0,\n            \"You don't have staked balance in this pool\"\n        );\n        // require(\n        //     TokenContract(_tokenContract).burnFrom(\n        //         msg.sender,\n        //         pool.stakes[msg.sender].amount.div(2)\n        //     ),\n        //     \"You need to approve this contract first.\"\n        // );\n\n        uint256 unstakeAmount = pool.stakes[msg.sender].amount.add(\n            pool.stakes[msg.sender].fee\n        );\n\n        msg.sender.transfer(unstakeAmount);\n        pool.totalStakedAmount = pool.totalStakedAmount.sub(pool.stakes[msg.sender].amount);\n        delete pool.stakes[msg.sender];\n\n        emit UserStaked(poolIndex, msg.sender, unstakeAmount);\n    }\n\n    // TODO: only Insurance contract can call this\n    function updateSlashingOfAPool(uint256 poolIndex, uint256 compensatedAmount) public returns(bool) {\n        // TODO: validations\n\n        Pool storage pool = _pools[poolIndex];\n        pool.compensatedBalance = pool.compensatedBalance.add(compensatedAmount);\n\n        return true;\n    }\n\n    /**\n        Governer calls this function to change aEth token contract address\n        @param tokenContract address\n    */\n    function updateTokenContract(address tokenContract)\n        external\n        onlyGovernor\n    {\n        _tokenContract = tokenContract;\n    }\n\n    /**\n        Get pool details for given pool array index\n\n        @param poolIndex uint256\n    */\n    function poolDetails(uint256 poolIndex)\n        public\n        view\n        returns (\n            PoolStatus status,\n            uint256 startTime,\n            uint256 endTime,\n            uint256 rewardBalance,\n            uint256 claimedBalance,\n            uint256 providerOwe,\n            uint256 nodeFee,\n            uint256 totalStakedAmount,\n            address payable provider,\n            address payable validator\n        )\n    //address payable[] memory members\n    {\n        Pool memory pool = _pools[poolIndex];\n        status = pool.status;\n        startTime = pool.startTime;\n        endTime = pool.endTime;\n        rewardBalance = pool.rewardBalance;\n        claimedBalance = pool.claimedBalance;\n        providerOwe = pool.providerOwe;\n        nodeFee = pool.nodeFee;\n        totalStakedAmount = pool.totalStakedAmount;\n        provider = pool.provider;\n        validator = pool.validator;\n        //members = pool.members;\n    }\n\n    function updateInsuranceContract(address addr) public onlyGovernor {\n        _insuranceContract = addr;\n    }\n\n    function claimable() public view returns (bool) {\n        return _claimable;\n    }\n}\n",
  "sourcePath": "/Users/anilkucukrecep/Code/Personal/st/contracts/contracts/MicroPool.sol",
  "compiler": {
    "name": "solc",
    "version": "0.6.8+commit.0bbfe453.Emscripten.clang"
  },
  "schemaVersion": "3.2.5",
  "updatedAt": "2020-09-26T06:25:43.230Z",
  "networkType": "ethereum",
  "devdoc": {
    "methods": {
      "initializePool(address,uint256)": {
        "params": {
          "validator": "address"
        }
      },
      "poolDetails(uint256)": {
        "params": {
          "poolIndex": "uint256"
        }
      },
      "stake(uint256)": {
        "params": {
          "poolIndex": "uint256"
        }
      },
      "unstake(uint256)": {
        "params": {
          "poolIndex": "uint256"
        }
      },
      "updateTokenContract(address)": {
        "params": {
          "tokenContract": "address"
        }
      }
    }
  },
  "userdoc": {
    "methods": {
      "initializePool(address,uint256)": {
        "notice": "Governor can call this function to create a new pool for given provider."
      },
      "poolDetails(uint256)": {
        "notice": "Get pool details for given pool array index"
      },
      "stake(uint256)": {
        "notice": "Users can call to stake to given pool"
      },
      "unstake(uint256)": {
        "notice": "Users can call to unstake from given pool until pool start"
      },
      "updateTokenContract(address)": {
        "notice": "Governer calls this function to change aEth token contract address"
      }
    }
  }
}