{
  "contractName": "Provider",
  "abi": [
    {
      "inputs": [
        {
          "internalType": "address",
          "name": "stakingContract",
          "type": "address"
        }
      ],
      "stateMutability": "nonpayable",
      "type": "constructor"
    },
    {
      "anonymous": false,
      "inputs": [
        {
          "indexed": true,
          "internalType": "address",
          "name": "provider",
          "type": "address"
        }
      ],
      "name": "Applied",
      "type": "event"
    },
    {
      "anonymous": false,
      "inputs": [
        {
          "indexed": true,
          "internalType": "address",
          "name": "previousOwner",
          "type": "address"
        },
        {
          "indexed": true,
          "internalType": "address",
          "name": "newOwner",
          "type": "address"
        }
      ],
      "name": "OwnershipTransferred",
      "type": "event"
    },
    {
      "anonymous": false,
      "inputs": [
        {
          "indexed": true,
          "internalType": "address",
          "name": "governor",
          "type": "address"
        },
        {
          "indexed": true,
          "internalType": "address",
          "name": "provider",
          "type": "address"
        },
        {
          "indexed": true,
          "internalType": "enum Provider.ProviderStatus",
          "name": "newStatus",
          "type": "uint8"
        }
      ],
      "name": "StatusChanged",
      "type": "event"
    },
    {
      "inputs": [],
      "name": "governanceContract",
      "outputs": [
        {
          "internalType": "address",
          "name": "",
          "type": "address"
        }
      ],
      "stateMutability": "view",
      "type": "function",
      "constant": true
    },
    {
      "inputs": [],
      "name": "owner",
      "outputs": [
        {
          "internalType": "address",
          "name": "",
          "type": "address"
        }
      ],
      "stateMutability": "view",
      "type": "function",
      "constant": true
    },
    {
      "inputs": [],
      "name": "renounceOwnership",
      "outputs": [],
      "stateMutability": "nonpayable",
      "type": "function"
    },
    {
      "inputs": [
        {
          "internalType": "address",
          "name": "newOwner",
          "type": "address"
        }
      ],
      "name": "transferOwnership",
      "outputs": [],
      "stateMutability": "nonpayable",
      "type": "function"
    },
    {
      "inputs": [
        {
          "internalType": "address",
          "name": "addr",
          "type": "address"
        }
      ],
      "name": "updateGovernanceContract",
      "outputs": [],
      "stateMutability": "nonpayable",
      "type": "function"
    },
    {
      "inputs": [
        {
          "internalType": "address",
          "name": "addr",
          "type": "address"
        }
      ],
      "name": "isProvider",
      "outputs": [
        {
          "internalType": "bool",
          "name": "",
          "type": "bool"
        }
      ],
      "stateMutability": "view",
      "type": "function",
      "constant": true
    },
    {
      "inputs": [
        {
          "internalType": "bytes32",
          "name": "name",
          "type": "bytes32"
        },
        {
          "internalType": "bytes32",
          "name": "website",
          "type": "bytes32"
        },
        {
          "internalType": "bytes32",
          "name": "iconUrl",
          "type": "bytes32"
        },
        {
          "internalType": "bytes32",
          "name": "email",
          "type": "bytes32"
        },
        {
          "internalType": "uint256",
          "name": "amount",
          "type": "uint256"
        }
      ],
      "name": "applyToBeProvider",
      "outputs": [],
      "stateMutability": "nonpayable",
      "type": "function"
    },
    {
      "inputs": [
        {
          "internalType": "address",
          "name": "addr",
          "type": "address"
        }
      ],
      "name": "approve",
      "outputs": [],
      "stateMutability": "nonpayable",
      "type": "function"
    },
    {
      "inputs": [
        {
          "internalType": "address",
          "name": "addr",
          "type": "address"
        }
      ],
      "name": "ban",
      "outputs": [],
      "stateMutability": "nonpayable",
      "type": "function"
    },
    {
      "inputs": [
        {
          "internalType": "address",
          "name": "addr",
          "type": "address"
        }
      ],
      "name": "getProviderInfo",
      "outputs": [
        {
          "components": [
            {
              "internalType": "bytes32",
              "name": "website",
              "type": "bytes32"
            },
            {
              "internalType": "bytes32",
              "name": "name",
              "type": "bytes32"
            },
            {
              "internalType": "bytes32",
              "name": "iconUrl",
              "type": "bytes32"
            },
            {
              "internalType": "bytes32",
              "name": "email",
              "type": "bytes32"
            },
            {
              "internalType": "address",
              "name": "addr",
              "type": "address"
            },
            {
              "internalType": "enum Provider.ProviderStatus",
              "name": "status",
              "type": "uint8"
            }
          ],
          "internalType": "struct Provider.ProviderInfo",
          "name": "",
          "type": "tuple"
        }
      ],
      "stateMutability": "view",
      "type": "function",
      "constant": true
    },
    {
      "inputs": [
        {
          "internalType": "address",
          "name": "addr",
          "type": "address"
        }
      ],
      "name": "updateStakingContract",
      "outputs": [],
      "stateMutability": "nonpayable",
      "type": "function"
    }
  ],
  "bytecode": "0x60806040523480156200001157600080fd5b50604051620014843803806200148483398181016040528101906200003791906200014e565b6000620000496200012f60201b60201c565b9050806000806101000a81548173ffffffffffffffffffffffffffffffffffffffff021916908373ffffffffffffffffffffffffffffffffffffffff1602179055508073ffffffffffffffffffffffffffffffffffffffff16600073ffffffffffffffffffffffffffffffffffffffff167f8be0079c531659141344cd1fd0a4f28419497f9722a3daafe3b4186f6b6457e060405160405180910390a35080600260006101000a81548173ffffffffffffffffffffffffffffffffffffffff021916908373ffffffffffffffffffffffffffffffffffffffff16021790555050620001c8565b600033905090565b6000815190506200014881620001ae565b92915050565b6000602082840312156200016157600080fd5b6000620001718482850162000137565b91505092915050565b600062000187826200018e565b9050919050565b600073ffffffffffffffffffffffffffffffffffffffff82169050919050565b620001b9816200017a565b8114620001c557600080fd5b50565b6112ac80620001d86000396000f3fe608060405234801561001057600080fd5b50600436106100a95760003560e01c80638da5cb5b116100715780638da5cb5b1461015057806397c3ccd81461016e578063b172b2221461018a578063daea85c5146101a8578063e6286ca4146101c4578063f2fde38b146101e0576100a9565b80633347e4d6146100ae5780636b074a07146100ca5780636faf60a0146100fa578063715018a6146101165780637583902f14610120575b600080fd5b6100c860048036038101906100c39190610d62565b6101fc565b005b6100e460048036038101906100df9190610d62565b610240565b6040516100f19190611090565b60405180910390f35b610114600480360381019061010f9190610d62565b6102b2565b005b61011e6102f6565b005b61013a60048036038101906101359190610d62565b61044b565b604051610147919061114b565b60405180910390f35b61015861054f565b604051610165919061104c565b60405180910390f35b61018860048036038101906101839190610d62565b610578565b005b6101926106dc565b60405161019f919061104c565b60405180910390f35b6101c260048036038101906101bd9190610d62565b610706565b005b6101de60048036038101906101d99190610d8b565b61086b565b005b6101fa60048036038101906101f59190610d62565b610af4565b005b80600260006101000a81548173ffffffffffffffffffffffffffffffffffffffff021916908373ffffffffffffffffffffffffffffffffffffffff16021790555050565b60006001600381111561024f57fe5b600360008473ffffffffffffffffffffffffffffffffffffffff1673ffffffffffffffffffffffffffffffffffffffff16815260200190815260200160002060040160149054906101000a900460ff1660038111156102aa57fe5b149050919050565b80600160006101000a81548173ffffffffffffffffffffffffffffffffffffffff021916908373ffffffffffffffffffffffffffffffffffffffff16021790555050565b6102fe610cb8565b73ffffffffffffffffffffffffffffffffffffffff166000809054906101000a900473ffffffffffffffffffffffffffffffffffffffff1673ffffffffffffffffffffffffffffffffffffffff161461038c576040517f08c379a00000000000000000000000000000000000000000000000000000000081526004016103839061112b565b60405180910390fd5b600073ffffffffffffffffffffffffffffffffffffffff166000809054906101000a900473ffffffffffffffffffffffffffffffffffffffff1673ffffffffffffffffffffffffffffffffffffffff167f8be0079c531659141344cd1fd0a4f28419497f9722a3daafe3b4186f6b6457e060405160405180910390a360008060006101000a81548173ffffffffffffffffffffffffffffffffffffffff021916908373ffffffffffffffffffffffffffffffffffffffff160217905550565b610453610cc0565b600360008373ffffffffffffffffffffffffffffffffffffffff1673ffffffffffffffffffffffffffffffffffffffff1681526020019081526020016000206040518060c0016040529081600082015481526020016001820154815260200160028201548152602001600382015481526020016004820160009054906101000a900473ffffffffffffffffffffffffffffffffffffffff1673ffffffffffffffffffffffffffffffffffffffff1673ffffffffffffffffffffffffffffffffffffffff1681526020016004820160149054906101000a900460ff16600381111561053957fe5b600381111561054457fe5b815250509050919050565b60008060009054906101000a900473ffffffffffffffffffffffffffffffffffffffff16905090565b61058181610240565b6105c0576040517f08c379a00000000000000000000000000000000000000000000000000000000081526004016105b7906110ab565b60405180910390fd5b6002600360008373ffffffffffffffffffffffffffffffffffffffff1673ffffffffffffffffffffffffffffffffffffffff16815260200190815260200160002060040160146101000a81548160ff0219169083600381111561061f57fe5b0217905550600360008273ffffffffffffffffffffffffffffffffffffffff1673ffffffffffffffffffffffffffffffffffffffff16815260200190815260200160002060040160149054906101000a900460ff16600381111561067f57fe5b8173ffffffffffffffffffffffffffffffffffffffff163373ffffffffffffffffffffffffffffffffffffffff167f3b101ee7afd509e5efaf1a3ac0038919ccb9862fc17984c0569f46d43fc9312960405160405180910390a450565b6000600160009054906101000a900473ffffffffffffffffffffffffffffffffffffffff16905090565b61070f81610240565b1561074f576040517f08c379a0000000000000000000000000000000000000000000000000000000008152600401610746906110eb565b60405180910390fd5b6001600360008373ffffffffffffffffffffffffffffffffffffffff1673ffffffffffffffffffffffffffffffffffffffff16815260200190815260200160002060040160146101000a81548160ff021916908360038111156107ae57fe5b0217905550600360008273ffffffffffffffffffffffffffffffffffffffff1673ffffffffffffffffffffffffffffffffffffffff16815260200190815260200160002060040160149054906101000a900460ff16600381111561080e57fe5b8173ffffffffffffffffffffffffffffffffffffffff163373ffffffffffffffffffffffffffffffffffffffff167f3b101ee7afd509e5efaf1a3ac0038919ccb9862fc17984c0569f46d43fc9312960405160405180910390a450565b61087433610240565b156108b4576040517f08c379a00000000000000000000000000000000000000000000000000000000081526004016108ab9061110b565b60405180910390fd5b6108bc610cc0565b8581602001818152505084816000018181525050838160400181815250508281606001818152505033816080019073ffffffffffffffffffffffffffffffffffffffff16908173ffffffffffffffffffffffffffffffffffffffff168152505060008160a00190600381111561092e57fe5b9081600381111561093b57fe5b8152505080600360003373ffffffffffffffffffffffffffffffffffffffff1673ffffffffffffffffffffffffffffffffffffffff1681526020019081526020016000206000820151816000015560208201518160010155604082015181600201556060820151816003015560808201518160040160006101000a81548173ffffffffffffffffffffffffffffffffffffffff021916908373ffffffffffffffffffffffffffffffffffffffff16021790555060a08201518160040160146101000a81548160ff02191690836003811115610a1257fe5b0217905550905050600260009054906101000a900473ffffffffffffffffffffffffffffffffffffffff1673ffffffffffffffffffffffffffffffffffffffff1663f8996cda33846040518363ffffffff1660e01b8152600401610a77929190611067565b600060405180830381600087803b158015610a9157600080fd5b505af1158015610aa5573d6000803e3d6000fd5b505050503373ffffffffffffffffffffffffffffffffffffffff167f83f970044e0c4e2d8a4922431cb57df4cd6dc71f67b619eb184d105e3b6d917a60405160405180910390a2505050505050565b610afc610cb8565b73ffffffffffffffffffffffffffffffffffffffff166000809054906101000a900473ffffffffffffffffffffffffffffffffffffffff1673ffffffffffffffffffffffffffffffffffffffff1614610b8a576040517f08c379a0000000000000000000000000000000000000000000000000000000008152600401610b819061112b565b60405180910390fd5b600073ffffffffffffffffffffffffffffffffffffffff168173ffffffffffffffffffffffffffffffffffffffff161415610bfa576040517f08c379a0000000000000000000000000000000000000000000000000000000008152600401610bf1906110cb565b60405180910390fd5b8073ffffffffffffffffffffffffffffffffffffffff166000809054906101000a900473ffffffffffffffffffffffffffffffffffffffff1673ffffffffffffffffffffffffffffffffffffffff167f8be0079c531659141344cd1fd0a4f28419497f9722a3daafe3b4186f6b6457e060405160405180910390a3806000806101000a81548173ffffffffffffffffffffffffffffffffffffffff021916908373ffffffffffffffffffffffffffffffffffffffff16021790555050565b600033905090565b6040518060c0016040528060008019168152602001600080191681526020016000801916815260200160008019168152602001600073ffffffffffffffffffffffffffffffffffffffff16815260200160006003811115610d1d57fe5b81525090565b600081359050610d3281611231565b92915050565b600081359050610d4781611248565b92915050565b600081359050610d5c8161125f565b92915050565b600060208284031215610d7457600080fd5b6000610d8284828501610d23565b91505092915050565b600080600080600060a08688031215610da357600080fd5b6000610db188828901610d38565b9550506020610dc288828901610d38565b9450506040610dd388828901610d38565b9350506060610de488828901610d38565b9250506080610df588828901610d4d565b9150509295509295909350565b610e0b816111dc565b82525050565b610e1a81611177565b82525050565b610e2981611177565b82525050565b610e3881611189565b82525050565b610e4781611195565b82525050565b610e56816111ee565b82525050565b6000610e69600e83611166565b91507f4e6f7420612070726f76696465720000000000000000000000000000000000006000830152602082019050919050565b6000610ea9602683611166565b91507f4f776e61626c653a206e6577206f776e657220697320746865207a65726f206160008301527f64647265737300000000000000000000000000000000000000000000000000006020830152604082019050919050565b6000610f0f601283611166565b91507f416c726561647920612070726f766964657200000000000000000000000000006000830152602082019050919050565b6000610f4f601a83611166565b91507f596f752061726520616c726561647920612070726f76696465720000000000006000830152602082019050919050565b6000610f8f602083611166565b91507f4f776e61626c653a2063616c6c6572206973206e6f7420746865206f776e65726000830152602082019050919050565b60c082016000820151610fd86000850182610e3e565b506020820151610feb6020850182610e3e565b506040820151610ffe6040850182610e3e565b5060608201516110116060850182610e3e565b5060808201516110246080850182610e11565b5060a082015161103760a0850182610e4d565b50505050565b611046816111d2565b82525050565b60006020820190506110616000830184610e20565b92915050565b600060408201905061107c6000830185610e02565b611089602083018461103d565b9392505050565b60006020820190506110a56000830184610e2f565b92915050565b600060208201905081810360008301526110c481610e5c565b9050919050565b600060208201905081810360008301526110e481610e9c565b9050919050565b6000602082019050818103600083015261110481610f02565b9050919050565b6000602082019050818103600083015261112481610f42565b9050919050565b6000602082019050818103600083015261114481610f82565b9050919050565b600060c0820190506111606000830184610fc2565b92915050565b600082825260208201905092915050565b6000611182826111b2565b9050919050565b60008115159050919050565b6000819050919050565b60008190506111ad82611224565b919050565b600073ffffffffffffffffffffffffffffffffffffffff82169050919050565b6000819050919050565b60006111e782611200565b9050919050565b60006111f98261119f565b9050919050565b600061120b82611212565b9050919050565b600061121d826111b2565b9050919050565b6004811061122e57fe5b50565b61123a81611177565b811461124557600080fd5b50565b61125181611195565b811461125c57600080fd5b50565b611268816111d2565b811461127357600080fd5b5056fea26469706673582212208c938e8c25237472f07096c6f5e78218a0a8c8fff75a0a69a6bd4142dcb83afb64736f6c63430006080033",
  "immutableReferences": {},
  "source": "// SPDX-License-Identifier: UNLICENSED\npragma solidity ^0.6.8;\npragma experimental ABIEncoderV2;\n\nimport \"./lib/SafeMath.sol\";\nimport \"./lib/Ownable.sol\";\nimport \"./core/OwnedByGovernor.sol\";\n\n\ninterface Staking {\n    function providerStake(address user, uint256 amount) external;\n\n    function checkProviderStake(address addr) external returns (bool);\n}\n\ncontract Provider is Ownable, OwnedByGovernor {\n    using SafeMath for uint256;\n\n    event Applied(address indexed provider);\n    event StatusChanged(address indexed governor, address indexed provider, ProviderStatus indexed newStatus);\n\n    enum ProviderStatus {PENDING, APPROVED, BANNED, REJECTED}\n\n    struct ProviderInfo {\n        bytes32 website;\n        bytes32 name;\n        bytes32 iconUrl;\n        bytes32 email;\n        address addr;\n        ProviderStatus status;\n    }\n\n    address private _stakingContract;\n    mapping(address => ProviderInfo) private _providers;\n\n    constructor(address stakingContract) public {\n        _stakingContract = stakingContract;\n    }\n\n    function isProvider(address addr) public view returns (bool) {\n        return _providers[addr].status == ProviderStatus.APPROVED;\n    }\n\n    function applyToBeProvider(\n        bytes32 name,\n        bytes32 website,\n        bytes32 iconUrl,\n        bytes32 email,\n        uint256 amount\n    ) public {\n        require(!isProvider(msg.sender), \"You are already a provider\");\n        // TODO: name required\n\n        ProviderInfo memory p;\n        p.name = name;\n        p.website = website;\n        p.iconUrl = iconUrl;\n        p.email = email;\n        p.addr = msg.sender;\n        p.status = ProviderStatus.PENDING;\n\n        _providers[msg.sender] = p;\n\n        Staking(_stakingContract).providerStake(msg.sender, amount);\n        emit Applied(msg.sender);\n    }\n\n    function approve(address addr) public onlyGovernor {\n        require(!isProvider(addr), \"Already a provider\");\n        // TODO: require(_stakingContract.checkProviderStake(addr), \"Provider not staked requirements\");\n\n        _providers[addr].status = ProviderStatus.APPROVED;\n        emit StatusChanged(msg.sender, addr, _providers[addr].status);\n    }\n\n    function ban(address addr) public onlyGovernor {\n        require(isProvider(addr), \"Not a provider\");\n\n        _providers[addr].status = ProviderStatus.BANNED;\n        emit StatusChanged(msg.sender, addr, _providers[addr].status);\n    }\n\n    function getProviderInfo(address addr) public view returns (ProviderInfo memory) {\n        return _providers[addr];\n    }\n\n    // TODO: OnlyGovernor -> Governors by voting\n    function updateStakingContract(address addr) public onlyGovernor {\n        _stakingContract = addr;\n    }\n}\n",
  "sourcePath": "/Users/anilkucukrecep/Code/Personal/st/contracts/contracts/Provider.sol",
  "compiler": {
    "name": "solc",
    "version": "0.6.8+commit.0bbfe453.Emscripten.clang"
  },
  "schemaVersion": "3.2.5",
  "updatedAt": "2020-09-19T05:29:50.114Z",
  "networkType": "ethereum",
  "devdoc": {
    "methods": {
      "owner()": {
        "details": "Returns the address of the current owner."
      },
      "renounceOwnership()": {
        "details": "Leaves the contract without owner. It will not be possible to call `onlyOwner` functions anymore. Can only be called by the current owner.     * NOTE: Renouncing ownership will leave the contract without an owner, thereby removing any functionality that is only available to the owner."
      },
      "transferOwnership(address)": {
        "details": "Transfers ownership of the contract to a new account (`newOwner`). Can only be called by the current owner."
      }
    }
  },
  "userdoc": {
    "methods": {}
  }
}