{
  "contractName": "Provider",
  "abi": [
    {
      "inputs": [
        {
          "internalType": "address",
          "name": "stakingContract",
          "type": "address"
        },
        {
          "internalType": "address",
          "name": "micropoolContract",
          "type": "address"
        }
      ],
      "stateMutability": "nonpayable",
      "type": "constructor"
    },
    {
      "anonymous": false,
      "inputs": [
        {
          "indexed": true,
          "internalType": "address",
          "name": "provider",
          "type": "address"
        }
      ],
      "name": "Applied",
      "type": "event"
    },
    {
      "anonymous": false,
      "inputs": [
        {
          "indexed": true,
          "internalType": "address",
          "name": "previousOwner",
          "type": "address"
        },
        {
          "indexed": true,
          "internalType": "address",
          "name": "newOwner",
          "type": "address"
        }
      ],
      "name": "OwnershipTransferred",
      "type": "event"
    },
    {
      "anonymous": false,
      "inputs": [
        {
          "indexed": true,
          "internalType": "address",
          "name": "governor",
          "type": "address"
        },
        {
          "indexed": true,
          "internalType": "address",
          "name": "provider",
          "type": "address"
        },
        {
          "indexed": true,
          "internalType": "enum Provider.ProviderStatus",
          "name": "newStatus",
          "type": "uint8"
        }
      ],
      "name": "StatusChanged",
      "type": "event"
    },
    {
      "inputs": [],
      "name": "governanceContract",
      "outputs": [
        {
          "internalType": "address",
          "name": "",
          "type": "address"
        }
      ],
      "stateMutability": "view",
      "type": "function",
      "constant": true
    },
    {
      "inputs": [],
      "name": "owner",
      "outputs": [
        {
          "internalType": "address",
          "name": "",
          "type": "address"
        }
      ],
      "stateMutability": "view",
      "type": "function",
      "constant": true
    },
    {
      "inputs": [],
      "name": "renounceOwnership",
      "outputs": [],
      "stateMutability": "nonpayable",
      "type": "function"
    },
    {
      "inputs": [
        {
          "internalType": "address",
          "name": "newOwner",
          "type": "address"
        }
      ],
      "name": "transferOwnership",
      "outputs": [],
      "stateMutability": "nonpayable",
      "type": "function"
    },
    {
      "inputs": [
        {
          "internalType": "address",
          "name": "addr",
          "type": "address"
        }
      ],
      "name": "updateGovernanceContract",
      "outputs": [],
      "stateMutability": "nonpayable",
      "type": "function"
    },
    {
      "inputs": [
        {
          "internalType": "address",
          "name": "addr",
          "type": "address"
        }
      ],
      "name": "isProvider",
      "outputs": [
        {
          "internalType": "bool",
          "name": "",
          "type": "bool"
        }
      ],
      "stateMutability": "view",
      "type": "function",
      "constant": true
    },
    {
      "inputs": [
        {
          "internalType": "bytes32",
          "name": "name",
          "type": "bytes32"
        }
      ],
      "name": "saveProvider",
      "outputs": [
        {
          "internalType": "uint256",
          "name": "",
          "type": "uint256"
        }
      ],
      "stateMutability": "payable",
      "type": "function",
      "payable": true
    },
    {
      "inputs": [
        {
          "internalType": "address",
          "name": "addr",
          "type": "address"
        }
      ],
      "name": "ban",
      "outputs": [],
      "stateMutability": "nonpayable",
      "type": "function"
    },
    {
      "inputs": [
        {
          "internalType": "address",
          "name": "addr",
          "type": "address"
        }
      ],
      "name": "getProviderInfo",
      "outputs": [
        {
          "components": [
            {
              "internalType": "bytes32",
              "name": "website",
              "type": "bytes32"
            },
            {
              "internalType": "bytes32",
              "name": "name",
              "type": "bytes32"
            },
            {
              "internalType": "bytes32",
              "name": "iconUrl",
              "type": "bytes32"
            },
            {
              "internalType": "bytes32",
              "name": "email",
              "type": "bytes32"
            },
            {
              "internalType": "address",
              "name": "addr",
              "type": "address"
            },
            {
              "internalType": "enum Provider.ProviderStatus",
              "name": "status",
              "type": "uint8"
            }
          ],
          "internalType": "struct Provider.ProviderInfo",
          "name": "",
          "type": "tuple"
        }
      ],
      "stateMutability": "view",
      "type": "function",
      "constant": true
    },
    {
      "inputs": [
        {
          "internalType": "address",
          "name": "addr",
          "type": "address"
        }
      ],
      "name": "updateStakingContract",
      "outputs": [],
      "stateMutability": "nonpayable",
      "type": "function"
    }
  ],
  "bytecode": "0x60806040523480156200001157600080fd5b506040516200123838038062001238833981810160405281019062000037919062000190565b6000620000496200017160201b60201c565b9050806000806101000a81548173ffffffffffffffffffffffffffffffffffffffff021916908373ffffffffffffffffffffffffffffffffffffffff1602179055508073ffffffffffffffffffffffffffffffffffffffff16600073ffffffffffffffffffffffffffffffffffffffff167f8be0079c531659141344cd1fd0a4f28419497f9722a3daafe3b4186f6b6457e060405160405180910390a35081600260006101000a81548173ffffffffffffffffffffffffffffffffffffffff021916908373ffffffffffffffffffffffffffffffffffffffff16021790555080600360006101000a81548173ffffffffffffffffffffffffffffffffffffffff021916908373ffffffffffffffffffffffffffffffffffffffff16021790555050506200021f565b600033905090565b6000815190506200018a8162000205565b92915050565b60008060408385031215620001a457600080fd5b6000620001b48582860162000179565b9250506020620001c78582860162000179565b9150509250929050565b6000620001de82620001e5565b9050919050565b600073ffffffffffffffffffffffffffffffffffffffff82169050919050565b6200021081620001d1565b81146200021c57600080fd5b50565b611009806200022f6000396000f3fe6080604052600436106100915760003560e01c80638da5cb5b116100595780638da5cb5b146101795780639386880b146101a457806397c3ccd8146101d4578063b172b222146101fd578063f2fde38b1461022857610091565b80633347e4d6146100965780636b074a07146100bf5780636faf60a0146100fc578063715018a6146101255780637583902f1461013c575b600080fd5b3480156100a257600080fd5b506100bd60048036038101906100b89190610bd7565b610251565b005b3480156100cb57600080fd5b506100e660048036038101906100e19190610bd7565b610295565b6040516100f39190610e3f565b60405180910390f35b34801561010857600080fd5b50610123600480360381019061011e9190610bd7565b61032f565b005b34801561013157600080fd5b5061013a610373565b005b34801561014857600080fd5b50610163600480360381019061015e9190610bd7565b6104c8565b6040516101709190610eda565b60405180910390f35b34801561018557600080fd5b5061018e6105cc565b60405161019b9190610e24565b60405180910390f35b6101be60048036038101906101b99190610c00565b6105f5565b6040516101cb9190610ef5565b60405180910390f35b3480156101e057600080fd5b506101fb60048036038101906101f69190610bd7565b6107f0565b005b34801561020957600080fd5b50610212610954565b60405161021f9190610e24565b60405180910390f35b34801561023457600080fd5b5061024f600480360381019061024a9190610bd7565b61097e565b005b80600260006101000a81548173ffffffffffffffffffffffffffffffffffffffff021916908373ffffffffffffffffffffffffffffffffffffffff16021790555050565b60008173ffffffffffffffffffffffffffffffffffffffff16600460008473ffffffffffffffffffffffffffffffffffffffff1673ffffffffffffffffffffffffffffffffffffffff16815260200190815260200160002060040160009054906101000a900473ffffffffffffffffffffffffffffffffffffffff1673ffffffffffffffffffffffffffffffffffffffff16149050919050565b80600160006101000a81548173ffffffffffffffffffffffffffffffffffffffff021916908373ffffffffffffffffffffffffffffffffffffffff16021790555050565b61037b610b42565b73ffffffffffffffffffffffffffffffffffffffff166000809054906101000a900473ffffffffffffffffffffffffffffffffffffffff1673ffffffffffffffffffffffffffffffffffffffff1614610409576040517f08c379a000000000000000000000000000000000000000000000000000000000815260040161040090610eba565b60405180910390fd5b600073ffffffffffffffffffffffffffffffffffffffff166000809054906101000a900473ffffffffffffffffffffffffffffffffffffffff1673ffffffffffffffffffffffffffffffffffffffff167f8be0079c531659141344cd1fd0a4f28419497f9722a3daafe3b4186f6b6457e060405160405180910390a360008060006101000a81548173ffffffffffffffffffffffffffffffffffffffff021916908373ffffffffffffffffffffffffffffffffffffffff160217905550565b6104d0610b4a565b600460008373ffffffffffffffffffffffffffffffffffffffff1673ffffffffffffffffffffffffffffffffffffffff1681526020019081526020016000206040518060c0016040529081600082015481526020016001820154815260200160028201548152602001600382015481526020016004820160009054906101000a900473ffffffffffffffffffffffffffffffffffffffff1673ffffffffffffffffffffffffffffffffffffffff1673ffffffffffffffffffffffffffffffffffffffff1681526020016004820160149054906101000a900460ff1660018111156105b657fe5b60018111156105c157fe5b815250509050919050565b60008060009054906101000a900473ffffffffffffffffffffffffffffffffffffffff16905090565b600061060033610295565b15610640576040517f08c379a000000000000000000000000000000000000000000000000000000000815260040161063790610e9a565b60405180910390fd5b600080905060008060001b905080841461065d5781806001019250505b610665610b4a565b8481602001818152505033816080019073ffffffffffffffffffffffffffffffffffffffff16908173ffffffffffffffffffffffffffffffffffffffff168152505060008160a0019060018111156106b957fe5b908160018111156106c657fe5b8152505080600460003373ffffffffffffffffffffffffffffffffffffffff1673ffffffffffffffffffffffffffffffffffffffff1681526020019081526020016000206000820151816000015560208201518160010155604082015181600201556060820151816003015560808201518160040160006101000a81548173ffffffffffffffffffffffffffffffffffffffff021916908373ffffffffffffffffffffffffffffffffffffffff16021790555060a08201518160040160146101000a81548160ff0219169083600181111561079d57fe5b02179055509050503373ffffffffffffffffffffffffffffffffffffffff167f83f970044e0c4e2d8a4922431cb57df4cd6dc71f67b619eb184d105e3b6d917a60405160405180910390a2505050919050565b6107f981610295565b610838576040517f08c379a000000000000000000000000000000000000000000000000000000000815260040161082f90610e5a565b60405180910390fd5b6001600460008373ffffffffffffffffffffffffffffffffffffffff1673ffffffffffffffffffffffffffffffffffffffff16815260200190815260200160002060040160146101000a81548160ff0219169083600181111561089757fe5b0217905550600460008273ffffffffffffffffffffffffffffffffffffffff1673ffffffffffffffffffffffffffffffffffffffff16815260200190815260200160002060040160149054906101000a900460ff1660018111156108f757fe5b8173ffffffffffffffffffffffffffffffffffffffff163373ffffffffffffffffffffffffffffffffffffffff167f3b101ee7afd509e5efaf1a3ac0038919ccb9862fc17984c0569f46d43fc9312960405160405180910390a450565b6000600160009054906101000a900473ffffffffffffffffffffffffffffffffffffffff16905090565b610986610b42565b73ffffffffffffffffffffffffffffffffffffffff166000809054906101000a900473ffffffffffffffffffffffffffffffffffffffff1673ffffffffffffffffffffffffffffffffffffffff1614610a14576040517f08c379a0000000000000000000000000000000000000000000000000000000008152600401610a0b90610eba565b60405180910390fd5b600073ffffffffffffffffffffffffffffffffffffffff168173ffffffffffffffffffffffffffffffffffffffff161415610a84576040517f08c379a0000000000000000000000000000000000000000000000000000000008152600401610a7b90610e7a565b60405180910390fd5b8073ffffffffffffffffffffffffffffffffffffffff166000809054906101000a900473ffffffffffffffffffffffffffffffffffffffff1673ffffffffffffffffffffffffffffffffffffffff167f8be0079c531659141344cd1fd0a4f28419497f9722a3daafe3b4186f6b6457e060405160405180910390a3806000806101000a81548173ffffffffffffffffffffffffffffffffffffffff021916908373ffffffffffffffffffffffffffffffffffffffff16021790555050565b600033905090565b6040518060c0016040528060008019168152602001600080191681526020016000801916815260200160008019168152602001600073ffffffffffffffffffffffffffffffffffffffff16815260200160006001811115610ba757fe5b81525090565b600081359050610bbc81610fa5565b92915050565b600081359050610bd181610fbc565b92915050565b600060208284031215610be957600080fd5b6000610bf784828501610bad565b91505092915050565b600060208284031215610c1257600080fd5b6000610c2084828501610bc2565b91505092915050565b610c3281610f21565b82525050565b610c4181610f21565b82525050565b610c5081610f33565b82525050565b610c5f81610f3f565b82525050565b610c6e81610f86565b82525050565b6000610c81600e83610f10565b91507f4e6f7420612070726f76696465720000000000000000000000000000000000006000830152602082019050919050565b6000610cc1602683610f10565b91507f4f776e61626c653a206e6577206f776e657220697320746865207a65726f206160008301527f64647265737300000000000000000000000000000000000000000000000000006020830152604082019050919050565b6000610d27601a83610f10565b91507f596f752061726520616c726561647920612070726f76696465720000000000006000830152602082019050919050565b6000610d67602083610f10565b91507f4f776e61626c653a2063616c6c6572206973206e6f7420746865206f776e65726000830152602082019050919050565b60c082016000820151610db06000850182610c56565b506020820151610dc36020850182610c56565b506040820151610dd66040850182610c56565b506060820151610de96060850182610c56565b506080820151610dfc6080850182610c29565b5060a0820151610e0f60a0850182610c65565b50505050565b610e1e81610f7c565b82525050565b6000602082019050610e396000830184610c38565b92915050565b6000602082019050610e546000830184610c47565b92915050565b60006020820190508181036000830152610e7381610c74565b9050919050565b60006020820190508181036000830152610e9381610cb4565b9050919050565b60006020820190508181036000830152610eb381610d1a565b9050919050565b60006020820190508181036000830152610ed381610d5a565b9050919050565b600060c082019050610eef6000830184610d9a565b92915050565b6000602082019050610f0a6000830184610e15565b92915050565b600082825260208201905092915050565b6000610f2c82610f5c565b9050919050565b60008115159050919050565b6000819050919050565b6000819050610f5782610f98565b919050565b600073ffffffffffffffffffffffffffffffffffffffff82169050919050565b6000819050919050565b6000610f9182610f49565b9050919050565b60028110610fa257fe5b50565b610fae81610f21565b8114610fb957600080fd5b50565b610fc581610f3f565b8114610fd057600080fd5b5056fea2646970667358221220c36717a41cbd547c2aee0c9b171ec32ccbf456b2dc200957a53470981bab119764736f6c63430006080033",
  "immutableReferences": {},
  "source": "// SPDX-License-Identifier: UNLICENSED\npragma solidity ^0.6.8;\npragma experimental ABIEncoderV2;\n\nimport \"./lib/SafeMath.sol\";\nimport \"./lib/Ownable.sol\";\nimport \"./core/OwnedByGovernor.sol\";\n\ninterface StakingContract {\n    function providerStake(address user) external;\n\n    function checkProviderStake(address addr) external returns (bool);\n}\n\ncontract Provider is Ownable, OwnedByGovernor {\n    using SafeMath for uint256;\n\n    event Applied(address indexed provider);\n    event StatusChanged(address indexed governor, address indexed provider, ProviderStatus indexed newStatus);\n\n    enum ProviderStatus {APPROVED, BANNED}\n\n    struct ProviderInfo {\n        bytes32 website;\n        bytes32 name;\n        bytes32 iconUrl;\n        bytes32 email;\n        address addr;\n        ProviderStatus status;\n    }\n\n    address private _stakingContract;\n    address private _micropoolContract;\n    mapping(address => ProviderInfo) private _providers;\n\n    constructor(address stakingContract, address micropoolContract) public {\n        _stakingContract = stakingContract;\n        _micropoolContract = micropoolContract;\n    }\n\n    function isProvider(address addr) public view returns (bool) {\n        return _providers[addr].addr == addr;\n    }\n\n    function saveProvider(bytes32 name) public payable returns(uint256) {\n        require(!isProvider(msg.sender), \"You are already a provider\");\n        uint256 feeMultiplier = 0;\n\n        bytes32 zero = 0x0000000000000000000000000000000000000000000000000000000000000000;\n\n        if (name != zero) {\n            feeMultiplier++;\n        }\n\n        ProviderInfo memory p;\n        p.name = name;\n        p.addr = msg.sender;\n        p.status = ProviderStatus.APPROVED;\n\n        _providers[msg.sender] = p;\n\n        emit Applied(msg.sender);\n        // StakingContract(_stakingContract).providerStake(msg.sender);\n        // require(msg.value >= feeMultiplier * 21000, 'Need extra gas to end transaction');\n    }\n    \n    function ban(address addr) public onlyGovernor {\n        require(isProvider(addr), \"Not a provider\");\n\n        _providers[addr].status = ProviderStatus.BANNED;\n        emit StatusChanged(msg.sender, addr, _providers[addr].status);\n    }\n\n    function getProviderInfo(address addr) public view returns (ProviderInfo memory) {\n        return _providers[addr];\n    }\n\n    // TODO: OnlyGovernor -> Governors by voting\n    function updateStakingContract(address addr) public onlyGovernor {\n        _stakingContract = addr;\n    }\n}\n",
  "sourcePath": "/Users/anilkucukrecep/Code/Personal/st/contracts/contracts/Provider.sol",
  "compiler": {
    "name": "solc",
    "version": "0.6.8+commit.0bbfe453.Emscripten.clang"
  },
  "schemaVersion": "3.2.5",
  "updatedAt": "2020-10-04T21:05:54.257Z",
  "networkType": "ethereum",
  "devdoc": {
    "methods": {
      "owner()": {
        "details": "Returns the address of the current owner."
      },
      "renounceOwnership()": {
        "details": "Leaves the contract without owner. It will not be possible to call `onlyOwner` functions anymore. Can only be called by the current owner.     * NOTE: Renouncing ownership will leave the contract without an owner, thereby removing any functionality that is only available to the owner."
      },
      "transferOwnership(address)": {
        "details": "Transfers ownership of the contract to a new account (`newOwner`). Can only be called by the current owner."
      }
    }
  },
  "userdoc": {
    "methods": {}
  }
}