{
  "contractName": "Swap",
  "abi": [
    {
      "anonymous": false,
      "inputs": [
        {
          "indexed": true,
          "internalType": "address",
          "name": "user",
          "type": "address"
        },
        {
          "indexed": false,
          "internalType": "uint256",
          "name": "amount",
          "type": "uint256"
        }
      ],
      "name": "Swapped",
      "type": "event"
    },
    {
      "inputs": [],
      "name": "governanceContract",
      "outputs": [
        {
          "internalType": "address",
          "name": "",
          "type": "address"
        }
      ],
      "stateMutability": "view",
      "type": "function"
    },
    {
      "inputs": [
        {
          "internalType": "address",
          "name": "addr",
          "type": "address"
        }
      ],
      "name": "updateGovernanceContract",
      "outputs": [],
      "stateMutability": "nonpayable",
      "type": "function"
    },
    {
      "stateMutability": "payable",
      "type": "receive"
    },
    {
      "inputs": [
        {
          "internalType": "uint256",
          "name": "amount",
          "type": "uint256"
        }
      ],
      "name": "swap",
      "outputs": [],
      "stateMutability": "nonpayable",
      "type": "function"
    },
    {
      "inputs": [
        {
          "internalType": "address",
          "name": "tokenContract",
          "type": "address"
        }
      ],
      "name": "updateTokenContract",
      "outputs": [],
      "stateMutability": "nonpayable",
      "type": "function"
    }
  ],
  "bytecode": "0x608060405234801561001057600080fd5b50610403806100206000396000f3fe6080604052600436106100435760003560e01c80636faf60a01461004f57806394b918de146100a0578063989ced26146100db578063b172b2221461012c5761004a565b3661004a57005b600080fd5b34801561005b57600080fd5b5061009e6004803603602081101561007257600080fd5b81019080803573ffffffffffffffffffffffffffffffffffffffff169060200190929190505050610183565b005b3480156100ac57600080fd5b506100d9600480360360208110156100c357600080fd5b81019080803590602001909291905050506101c6565b005b3480156100e757600080fd5b5061012a600480360360208110156100fe57600080fd5b81019080803573ffffffffffffffffffffffffffffffffffffffff169060200190929190505050610358565b005b34801561013857600080fd5b5061014161039c565b604051808273ffffffffffffffffffffffffffffffffffffffff1673ffffffffffffffffffffffffffffffffffffffff16815260200191505060405180910390f35b806000806101000a81548173ffffffffffffffffffffffffffffffffffffffff021916908373ffffffffffffffffffffffffffffffffffffffff16021790555050565b600160009054906101000a900473ffffffffffffffffffffffffffffffffffffffff1673ffffffffffffffffffffffffffffffffffffffff166379cc679061020c6103c5565b836040518363ffffffff1660e01b8152600401808373ffffffffffffffffffffffffffffffffffffffff1673ffffffffffffffffffffffffffffffffffffffff16815260200182815260200192505050602060405180830381600087803b15801561027657600080fd5b505af115801561028a573d6000803e3d6000fd5b505050506040513d60208110156102a057600080fd5b8101908080519060200190929190505050506102ba6103c5565b73ffffffffffffffffffffffffffffffffffffffff166108fc829081150290604051600060405180830381858888f193505050501580156102ff573d6000803e3d6000fd5b506103086103c5565b73ffffffffffffffffffffffffffffffffffffffff167fcdee897399ab5e465acb1bd3ed5e32c695f196321764546c59720fa6c9ce4c69826040518082815260200191505060405180910390a250565b80600160006101000a81548173ffffffffffffffffffffffffffffffffffffffff021916908373ffffffffffffffffffffffffffffffffffffffff16021790555050565b60008060009054906101000a900473ffffffffffffffffffffffffffffffffffffffff16905090565b60003390509056fea2646970667358221220a54c4cfc3dc17085a927b05d836b1bf352ae7a69bb35be4f641fb75917b496c464736f6c63430006080033",
  "immutableReferences": {},
  "source": "// SPDX-License-Identifier: UNLICENSED\npragma solidity ^0.6.8;\n\nimport \"./lib/SafeMath.sol\";\nimport \"./lib/Context.sol\";\nimport \"./core/OwnedByGovernor.sol\";\n\ninterface TokenContract {\n    function mint(address account, uint256 amount) external virtual;\n    function burnFrom(address sender, uint256 amount) external virtual returns (bool);\n}\n\ncontract Swap is Context, OwnedByGovernor {\n    using SafeMath for uint256;\n\n    address private _tokenContract;\n\n    event Swapped(\n        address indexed user,\n        uint256 amount\n    );\n\n    // allow to receive ETH payments\n    receive() external payable {}\n\n    function swap(uint256 amount) external {\n        // TODO: validations\n\n        TokenContract(_tokenContract).burnFrom(_msgSender(), amount);\n        _msgSender().transfer(amount);\n        emit Swapped(_msgSender(), amount);\n    }\n\n    function updateTokenContract(address tokenContract) external onlyGovernor {\n        _tokenContract = tokenContract;\n    }\n}\n",
  "sourcePath": "/Users/mehmet/Code/Temple/ankr/contracts/Swap.sol",
  "compiler": {
    "name": "solc",
    "version": "0.6.8+commit.0bbfe453.Emscripten.clang"
  },
  "schemaVersion": "3.2.5",
  "updatedAt": "2020-10-04T21:02:17.982Z",
  "devdoc": {
    "methods": {}
  },
  "userdoc": {
    "methods": {}
  }
}