{
  "contractName": "Voting",
  "abi": [
    {
      "inputs": [
        {
          "internalType": "uint256",
          "name": "index",
          "type": "uint256"
        }
      ],
      "name": "_vote",
      "outputs": [],
      "stateMutability": "nonpayable",
      "type": "function"
    }
  ],
  "bytecode": "0x6080604052348015600f57600080fd5b5060918061001e6000396000f3fe6080604052348015600f57600080fd5b506004361060285760003560e01c80638d1eaf8f14602d575b600080fd5b605660048036036020811015604157600080fd5b81019080803590602001909291905050506058565b005b5056fea2646970667358221220b22ffef0402cd559b8251222ee67121a797722aa045155537e3e778aa29914b564736f6c63430006080033",
  "immutableReferences": {},
  "source": "// SPDX-License-Identifier: UNLICENSED\npragma solidity ^0.6.8;\n\nimport \"../lib/SafeMath.sol\";\n\n// TODO: update this contract\ncontract Voting {\n\n    using SafeMath for uint256;\n\n    enum Vote {Accept, Reject}\n\n    struct Proposal {\n        bytes32 name;\n        uint256 accepts;\n        uint256 rejects;\n        uint256 endTime;\n        mapping (address => Vote) votes;\n    }\n\n    Proposal[] private _proposals;\n\n    // TODO only governance contract can call this\n    function _propose(bytes32 name) internal returns(bool) {\n        Proposal memory proposal;\n        proposal.name = name;\n        proposal.endTime = block.timestamp.add(2 days); // TODO: it can be dynamic.\n        _proposals.push(proposal);\n\n        return true;\n    }\n\n    function _vote(uint256 index) public {}\n}",
  "sourcePath": "/Users/anilkucukrecep/Code/Personal/st/contracts/contracts/core/Voting.sol",
  "compiler": {
    "name": "solc",
    "version": "0.6.8+commit.0bbfe453.Emscripten.clang"
  },
  "schemaVersion": "3.2.5",
  "updatedAt": "2020-10-04T20:41:06.726Z",
  "devdoc": {
    "methods": {}
  },
  "userdoc": {
    "methods": {}
  }
}